{
  "contractName": "Dice",
  "abi": [
    {
      "inputs": [],
      "stateMutability": "nonpayable",
      "type": "constructor"
    },
    {
      "anonymous": false,
      "inputs": [
        {
          "indexed": false,
          "internalType": "address",
          "name": "playerAddress",
          "type": "address"
        },
        {
          "indexed": false,
          "internalType": "uint256",
          "name": "numberRolled",
          "type": "uint256"
        }
      ],
      "name": "BetLost",
      "type": "event"
    },
    {
      "anonymous": false,
      "inputs": [
        {
          "indexed": false,
          "internalType": "address",
          "name": "playerAddress",
          "type": "address"
        },
        {
          "indexed": false,
          "internalType": "uint256",
          "name": "numberRolled",
          "type": "uint256"
        },
        {
          "indexed": false,
          "internalType": "uint256",
          "name": "amountWon",
          "type": "uint256"
        }
      ],
      "name": "BetWon",
      "type": "event"
    },
    {
      "anonymous": false,
      "inputs": [
        {
          "indexed": true,
          "internalType": "bytes32",
          "name": "requestId",
          "type": "bytes32"
        },
        {
          "indexed": true,
          "internalType": "uint256",
          "name": "result",
          "type": "uint256"
        }
      ],
      "name": "DiceLanded",
      "type": "event"
    },
    {
      "anonymous": false,
      "inputs": [
        {
          "indexed": true,
          "internalType": "bytes32",
          "name": "requestId",
          "type": "bytes32"
        },
        {
          "indexed": true,
          "internalType": "address",
          "name": "roller",
          "type": "address"
        }
      ],
      "name": "DiceRolled",
      "type": "event"
    },
    {
      "anonymous": false,
      "inputs": [
        {
          "indexed": false,
          "internalType": "address",
          "name": "withdrawalAddress",
          "type": "address"
        }
      ],
      "name": "EmergencyWithdrawalFailed",
      "type": "event"
    },
    {
      "anonymous": false,
      "inputs": [],
      "name": "EmergencyWithdrawalProposed",
      "type": "event"
    },
    {
      "anonymous": false,
      "inputs": [
        {
          "indexed": false,
          "internalType": "address",
          "name": "withdrawalAddress",
          "type": "address"
        },
        {
          "indexed": false,
          "internalType": "uint256",
          "name": "amountWithdrawn",
          "type": "uint256"
        }
      ],
      "name": "EmergencyWithdrawalSucceeded",
      "type": "event"
    },
    {
      "anonymous": false,
      "inputs": [
        {
          "indexed": false,
          "internalType": "address",
          "name": "receiver",
          "type": "address"
        },
        {
          "indexed": false,
          "internalType": "uint256",
          "name": "amount",
          "type": "uint256"
        }
      ],
      "name": "FailedSend",
      "type": "event"
    },
    {
      "anonymous": false,
      "inputs": [],
      "name": "ValueIsTooBig",
      "type": "event"
    },
    {
      "inputs": [],
      "name": "amountWagered",
      "outputs": [
        {
          "internalType": "uint256",
          "name": "",
          "type": "uint256"
        }
      ],
      "stateMutability": "view",
      "type": "function"
    },
    {
      "inputs": [],
      "name": "invested",
      "outputs": [
        {
          "internalType": "uint256",
          "name": "",
          "type": "uint256"
        }
      ],
      "stateMutability": "view",
      "type": "function"
    },
    {
      "inputs": [
        {
          "internalType": "address",
          "name": "",
          "type": "address"
        }
      ],
      "name": "investorIDs",
      "outputs": [
        {
          "internalType": "uint256",
          "name": "",
          "type": "uint256"
        }
      ],
      "stateMutability": "view",
      "type": "function"
    },
    {
      "inputs": [
        {
          "internalType": "uint256",
          "name": "",
          "type": "uint256"
        }
      ],
      "name": "investors",
      "outputs": [
        {
          "internalType": "address",
          "name": "investorAddress",
          "type": "address"
        },
        {
          "internalType": "uint256",
          "name": "amountInvested",
          "type": "uint256"
        },
        {
          "internalType": "bool",
          "name": "votedForEmergencyWithdrawal",
          "type": "bool"
        }
      ],
      "stateMutability": "view",
      "type": "function"
    },
    {
      "inputs": [],
      "name": "investorsLoses",
      "outputs": [
        {
          "internalType": "uint256",
          "name": "",
          "type": "uint256"
        }
      ],
      "stateMutability": "view",
      "type": "function"
    },
    {
      "inputs": [],
      "name": "investorsProfit",
      "outputs": [
        {
          "internalType": "uint256",
          "name": "",
          "type": "uint256"
        }
      ],
      "stateMutability": "view",
      "type": "function"
    },
    {
      "inputs": [],
      "name": "isStopped",
      "outputs": [
        {
          "internalType": "bool",
          "name": "",
          "type": "bool"
        }
      ],
      "stateMutability": "view",
      "type": "function"
    },
    {
      "inputs": [],
      "name": "numInvestors",
      "outputs": [
        {
          "internalType": "uint256",
          "name": "",
          "type": "uint256"
        }
      ],
      "stateMutability": "view",
      "type": "function"
    },
    {
      "inputs": [],
      "name": "proposedWithdrawal",
      "outputs": [
        {
          "internalType": "address payable",
          "name": "toAddress",
          "type": "address"
        },
        {
          "internalType": "uint256",
          "name": "atTime",
          "type": "uint256"
        }
      ],
      "stateMutability": "view",
      "type": "function"
    },
    {
      "inputs": [
        {
          "internalType": "bytes32",
          "name": "requestId",
          "type": "bytes32"
        },
        {
          "internalType": "uint256",
          "name": "randomness",
          "type": "uint256"
        }
      ],
      "name": "rawFulfillRandomness",
      "outputs": [],
      "stateMutability": "nonpayable",
      "type": "function"
    },
    {
      "stateMutability": "payable",
      "type": "receive"
    },
    {
      "inputs": [],
      "name": "getBankroll",
      "outputs": [
        {
          "internalType": "uint256",
          "name": "",
          "type": "uint256"
        }
      ],
      "stateMutability": "view",
      "type": "function"
    },
    {
      "inputs": [],
      "name": "getMinInvestment",
      "outputs": [
        {
          "internalType": "uint256",
          "name": "",
          "type": "uint256"
        }
      ],
      "stateMutability": "view",
      "type": "function"
    },
    {
      "inputs": [],
      "name": "getStatus",
      "outputs": [
        {
          "internalType": "uint256",
          "name": "",
          "type": "uint256"
        },
        {
          "internalType": "uint256",
          "name": "",
          "type": "uint256"
        },
        {
          "internalType": "uint256",
          "name": "",
          "type": "uint256"
        },
        {
          "internalType": "uint256",
          "name": "",
          "type": "uint256"
        },
        {
          "internalType": "uint256",
          "name": "",
          "type": "uint256"
        },
        {
          "internalType": "uint256",
          "name": "",
          "type": "uint256"
        },
        {
          "internalType": "uint256",
          "name": "",
          "type": "uint256"
        },
        {
          "internalType": "uint256",
          "name": "",
          "type": "uint256"
        },
        {
          "internalType": "uint256",
          "name": "",
          "type": "uint256"
        }
      ],
      "stateMutability": "view",
      "type": "function"
    },
    {
      "inputs": [
        {
          "internalType": "uint256",
          "name": "id",
          "type": "uint256"
        }
      ],
      "name": "getBet",
      "outputs": [
        {
          "internalType": "address",
          "name": "",
          "type": "address"
        },
        {
          "internalType": "uint256",
          "name": "",
          "type": "uint256"
        },
        {
          "internalType": "uint256",
          "name": "",
          "type": "uint256"
        }
      ],
      "stateMutability": "view",
      "type": "function"
    },
    {
      "inputs": [],
      "name": "numBets",
      "outputs": [
        {
          "internalType": "uint256",
          "name": "",
          "type": "uint256"
        }
      ],
      "stateMutability": "view",
      "type": "function"
    },
    {
      "inputs": [],
      "name": "getMinBetAmount",
      "outputs": [
        {
          "internalType": "uint256",
          "name": "",
          "type": "uint256"
        }
      ],
      "stateMutability": "view",
      "type": "function"
    },
    {
      "inputs": [],
      "name": "getMaxBetAmount",
      "outputs": [
        {
          "internalType": "uint256",
          "name": "",
          "type": "uint256"
        }
      ],
      "stateMutability": "view",
      "type": "function"
    },
    {
      "inputs": [
        {
          "internalType": "address",
          "name": "currentInvestor",
          "type": "address"
        }
      ],
      "name": "getLosesShare",
      "outputs": [
        {
          "internalType": "uint256",
          "name": "",
          "type": "uint256"
        }
      ],
      "stateMutability": "view",
      "type": "function"
    },
    {
      "inputs": [
        {
          "internalType": "address",
          "name": "currentInvestor",
          "type": "address"
        }
      ],
      "name": "getProfitShare",
      "outputs": [
        {
          "internalType": "uint256",
          "name": "",
          "type": "uint256"
        }
      ],
      "stateMutability": "view",
      "type": "function"
    },
    {
      "inputs": [
        {
          "internalType": "address",
          "name": "currentInvestor",
          "type": "address"
        }
      ],
      "name": "getBalance",
      "outputs": [
        {
          "internalType": "uint256",
          "name": "",
          "type": "uint256"
        }
      ],
      "stateMutability": "view",
      "type": "function"
    },
    {
      "inputs": [],
      "name": "searchSmallestInvestor",
      "outputs": [
        {
          "internalType": "uint256",
          "name": "",
          "type": "uint256"
        }
      ],
      "stateMutability": "view",
      "type": "function"
    },
    {
      "inputs": [],
      "name": "bet",
      "outputs": [],
      "stateMutability": "payable",
      "type": "function"
    },
    {
      "inputs": [],
      "name": "increaseInvestment",
      "outputs": [],
      "stateMutability": "payable",
      "type": "function"
    },
    {
      "inputs": [],
      "name": "newInvestor",
      "outputs": [],
      "stateMutability": "payable",
      "type": "function"
    },
    {
      "inputs": [],
      "name": "divest",
      "outputs": [],
      "stateMutability": "payable",
      "type": "function"
    },
    {
      "inputs": [],
      "name": "forceDivestOfAllInvestors",
      "outputs": [],
      "stateMutability": "payable",
      "type": "function"
    },
    {
      "inputs": [
        {
          "internalType": "address",
          "name": "currentInvestor",
          "type": "address"
        }
      ],
      "name": "forceDivestOfOneInvestor",
      "outputs": [],
      "stateMutability": "payable",
      "type": "function"
    },
    {
      "inputs": [],
      "name": "stopContract",
      "outputs": [],
      "stateMutability": "payable",
      "type": "function"
    },
    {
      "inputs": [],
      "name": "resumeContract",
      "outputs": [],
      "stateMutability": "payable",
      "type": "function"
    },
    {
      "inputs": [
        {
          "internalType": "address",
          "name": "newHouse",
          "type": "address"
        }
      ],
      "name": "changeHouseAddress",
      "outputs": [],
      "stateMutability": "payable",
      "type": "function"
    },
    {
      "inputs": [
        {
          "internalType": "address",
          "name": "newOwner",
          "type": "address"
        }
      ],
      "name": "changeOwnerAddress",
      "outputs": [],
      "stateMutability": "payable",
      "type": "function"
    },
    {
      "inputs": [
        {
          "internalType": "uint256",
          "name": "newGasLimit",
          "type": "uint256"
        }
      ],
      "name": "changeGasLimitOfSafeSend",
      "outputs": [],
      "stateMutability": "payable",
      "type": "function"
    },
    {
      "inputs": [
        {
          "internalType": "bool",
          "name": "vote",
          "type": "bool"
        }
      ],
      "name": "voteEmergencyWithdrawal",
      "outputs": [],
      "stateMutability": "payable",
      "type": "function"
    },
    {
      "inputs": [
        {
          "internalType": "address payable",
          "name": "withdrawalAddress",
          "type": "address"
        }
      ],
      "name": "proposeEmergencyWithdrawal",
      "outputs": [],
      "stateMutability": "payable",
      "type": "function"
    },
    {
      "inputs": [],
      "name": "executeEmergencyWithdrawal",
      "outputs": [],
      "stateMutability": "payable",
      "type": "function"
    },
    {
      "inputs": [
        {
          "internalType": "address",
          "name": "to",
          "type": "address"
        },
        {
          "internalType": "uint256",
          "name": "value",
          "type": "uint256"
        }
      ],
      "name": "withdrawLINK",
      "outputs": [],
      "stateMutability": "nonpayable",
      "type": "function"
    },
    {
      "inputs": [],
      "name": "withdrawAllLink",
      "outputs": [],
      "stateMutability": "nonpayable",
      "type": "function"
    },
    {
      "inputs": [
        {
          "internalType": "bytes32",
          "name": "keyHash",
          "type": "bytes32"
        }
      ],
      "name": "setKeyHash",
      "outputs": [],
      "stateMutability": "nonpayable",
      "type": "function"
    },
    {
      "inputs": [],
      "name": "keyHash",
      "outputs": [
        {
          "internalType": "bytes32",
          "name": "",
          "type": "bytes32"
        }
      ],
      "stateMutability": "view",
      "type": "function"
    },
    {
      "inputs": [
        {
          "internalType": "uint256",
          "name": "fee",
          "type": "uint256"
        }
      ],
      "name": "setFee",
      "outputs": [],
      "stateMutability": "nonpayable",
      "type": "function"
    },
    {
      "inputs": [],
      "name": "fee",
      "outputs": [
        {
          "internalType": "uint256",
          "name": "",
          "type": "uint256"
        }
      ],
      "stateMutability": "view",
      "type": "function"
    }
  ],
  "bytecode": "0x60c06040526161a8600355600060065560006007556000600e556000600f55600060105534801561002f57600080fd5b5073dd3782915140c8f3b190b5d67eac6dc5760c46e973a36085f69e2889c224210f603d836748e7dc00888173ffffffffffffffffffffffffffffffffffffffff1660a08173ffffffffffffffffffffffffffffffffffffffff1660601b815250508073ffffffffffffffffffffffffffffffffffffffff1660808173ffffffffffffffffffffffffffffffffffffffff1660601b81525050505033600860006101000a81548173ffffffffffffffffffffffffffffffffffffffff021916908373ffffffffffffffffffffffffffffffffffffffff16021790555033600960006101000a81548173ffffffffffffffffffffffffffffffffffffffff021916908373ffffffffffffffffffffffffffffffffffffffff1602179055507f6c3699283bda56ad74f6b855546325b68d482e983852a7a82979cc4807b641f460001b60018190555067016345785d8a000060028190555060805160601c60a05160601c614ad96101c260003980612267528061383e5250806124005280612aa25280612adf52806138025250614ad96000f3fe60806040526004361061024a5760003560e01c806366aee0fc11610139578063c4bc5da5116100b6578063ddca3f431161007a578063ddca3f43146109de578063df06f90614610a09578063e0e3ba5a14610a34578063f4993bbd14610a99578063f8b2cb4f14610aa3578063fb099c8414610b0857610259565b8063c4bc5da514610939578063cafb220214610943578063ccf03f3a1461096e578063d21d795014610985578063d4c80edf146109b357610259565b806385eac05f116100fd57806385eac05f1461081057806394985ddd14610854578063983fbab21461089957806398544710146108f4578063a4beffa71461092f57610259565b806366aee0fc146106ef57806369fe0e2d1461071a5780636be80de714610755578063724ae9d0146107ba57806382a5285d146107e557610259565b8063333e1a72116101c75780634e69d5601161018b5780634e69d5601461059457806351404cbe146105f7578063518496b21461063b578063550ed1f01461069957806361728f39146106c457610259565b8063333e1a721461043e5780633f683b6a146104695780633feb5f2b1461049857806340a49a96146105255780634671e65e1461055057610259565b806312253a6c1161020e57806312253a6c1461038b578063132ae5e914610395578063187a62d5146103c05780631efb17ee146103f0578063232523e81461043457610259565b8063058aace11461025e578063061e494f146102685780630d1fce42146102f157806311610c251461031c578063116c6eab1461032657610259565b3661025957610257610b12565b005b600080fd5b610266610e62565b005b34801561027457600080fd5b506102a16004803603602081101561028b57600080fd5b8101908080359060200190929190505050610fa7565b604051808473ffffffffffffffffffffffffffffffffffffffff1673ffffffffffffffffffffffffffffffffffffffff168152602001838152602001828152602001935050505060405180910390f35b3480156102fd57600080fd5b5061030661104e565b6040518082815260200191505060405180910390f35b610324610b12565b005b34801561033257600080fd5b506103756004803603602081101561034957600080fd5b81019080803573ffffffffffffffffffffffffffffffffffffffff169060200190929190505050611060565b6040518082815260200191505060405180910390f35b6103936110ce565b005b3480156103a157600080fd5b506103aa611232565b6040518082815260200191505060405180910390f35b6103ee600480360360208110156103d657600080fd5b81019080803515159060200190929190505050611238565b005b6104326004803603602081101561040657600080fd5b81019080803573ffffffffffffffffffffffffffffffffffffffff169060200190929190505050611556565b005b61043c6116e1565b005b34801561044a57600080fd5b5061045361188e565b6040518082815260200191505060405180910390f35b34801561047557600080fd5b5061047e611894565b604051808215151515815260200191505060405180910390f35b3480156104a457600080fd5b506104d1600480360360208110156104bb57600080fd5b81019080803590602001909291905050506118a7565b604051808473ffffffffffffffffffffffffffffffffffffffff1673ffffffffffffffffffffffffffffffffffffffff16815260200183815260200182151515158152602001935050505060405180910390f35b34801561053157600080fd5b5061053a6118fe565b6040518082815260200191505060405180910390f35b6105926004803603602081101561056657600080fd5b81019080803573ffffffffffffffffffffffffffffffffffffffff1690602001909291905050506119b2565b005b3480156105a057600080fd5b506105a9611c76565b604051808a8152602001898152602001888152602001878152602001868152602001858152602001848152602001838152602001828152602001995050505050505050505060405180910390f35b6106396004803603602081101561060d57600080fd5b81019080803573ffffffffffffffffffffffffffffffffffffffff169060200190929190505050611cdb565b005b34801561064757600080fd5b50610650611eeb565b604051808373ffffffffffffffffffffffffffffffffffffffff1673ffffffffffffffffffffffffffffffffffffffff1681526020018281526020019250505060405180910390f35b3480156106a557600080fd5b506106ae611f1d565b6040518082815260200191505060405180910390f35b3480156106d057600080fd5b506106d9611f5b565b6040518082815260200191505060405180910390f35b3480156106fb57600080fd5b50610704611f65565b6040518082815260200191505060405180910390f35b34801561072657600080fd5b506107536004803603602081101561073d57600080fd5b8101908080359060200190929190505050611f6b565b005b34801561076157600080fd5b506107a46004803603602081101561077857600080fd5b81019080803573ffffffffffffffffffffffffffffffffffffffff16906020019092919050505061203f565b6040518082815260200191505060405180910390f35b3480156107c657600080fd5b506107cf612057565b6040518082815260200191505060405180910390f35b3480156107f157600080fd5b506107fa6120bf565b6040518082815260200191505060405180910390f35b6108526004803603602081101561082657600080fd5b81019080803573ffffffffffffffffffffffffffffffffffffffff1690602001909291905050506120da565b005b34801561086057600080fd5b506108976004803603604081101561087757600080fd5b810190808035906020019092919080359060200190929190505050612265565b005b3480156108a557600080fd5b506108f2600480360360408110156108bc57600080fd5b81019080803573ffffffffffffffffffffffffffffffffffffffff16906020019092919080359060200190929190505050612334565b005b34801561090057600080fd5b5061092d6004803603602081101561091757600080fd5b8101908080359060200190929190505050612556565b005b61093761262a565b005b61094161286c565b005b34801561094f57600080fd5b506109586129d0565b6040518082815260200191505060405180910390f35b34801561097a57600080fd5b506109836129d6565b005b6109b16004803603602081101561099b57600080fd5b8101908080359060200190929190505050612ccd565b005b3480156109bf57600080fd5b506109c8612e9f565b6040518082815260200191505060405180910390f35b3480156109ea57600080fd5b506109f3612ea5565b6040518082815260200191505060405180910390f35b348015610a1557600080fd5b50610a1e612eaf565b6040518082815260200191505060405180910390f35b348015610a4057600080fd5b50610a8360048036036020811015610a5757600080fd5b81019080803573ffffffffffffffffffffffffffffffffffffffff169060200190929190505050612ebc565b6040518082815260200191505060405180910390f35b610aa1612f2a565b005b348015610aaf57600080fd5b50610af260048036036020811015610ac657600080fd5b81019080803573ffffffffffffffffffffffffffffffffffffffff1690602001909291905050506134c5565b6040518082815260200191505060405180910390f35b610b10613538565b005b600960149054906101000a900460ff1615610b9c576000610b9b576040517f08c379a00000000000000000000000000000000000000000000000000000000081526004018080602001828103825260138152602001807f436f6e74726163742069732073746f707065640000000000000000000000000081525060200191505060405180910390fd5b5b6000341415610c1a576000610c19576040517f08c379a00000000000000000000000000000000000000000000000000000000081526004018080602001828103825260138152602001807f4f6e6c79206d6f7265207468616e207a65726f0000000000000000000000000081525060200191505060405180910390fd5b5b610c22612057565b3411610c9d576000610c9c576040517f08c379a000000000000000000000000000000000000000000000000000000000815260040180806020018281038252601d8152602001807f4f6e6c79206d6f7265207468616e206d696e20696e766573746d656e7400000081525060200191505060405180910390fd5b5b600066071afd498d000090506000349050612710610cb961104e565b60640281610cc357fe5b046123288060be6127100303830281610cd857fe5b0411610e06576000610cee6001546002546137fe565b905060405180606001604052803373ffffffffffffffffffffffffffffffffffffffff1681526020018381526020016000815250600c600083815260200190815260200160002060008201518160000160006101000a81548173ffffffffffffffffffffffffffffffffffffffff021916908373ffffffffffffffffffffffffffffffffffffffff1602179055506020820151816001015560408201518160020155905050600d8190806001815401808255809150506001900390600052602060002001600090919091909150553373ffffffffffffffffffffffffffffffffffffffff16817f923de4fc4aece24a78a9e4ca3009c571a742f81ac2c004a229224b0fd1883bdd60405160405180910390a350610e5e565b6000610e5d576040517f08c379a0000000000000000000000000000000000000000000000000000000008152600401808060200182810382526024815260200180614a806024913960400191505060405180910390fd5b5b5050565b6000600460003373ffffffffffffffffffffffffffffffffffffffff1673ffffffffffffffffffffffffffffffffffffffff168152602001908152602001600020541415610f1f576000610f1e576040517f08c379a00000000000000000000000000000000000000000000000000000000081526004018080602001828103825260128152602001807f4f6e6c7920666f7220696e766573746f7273000000000000000000000000000081525060200191505060405180910390fd5b5b60003414610f9c576000610f9b576040517f08c379a000000000000000000000000000000000000000000000000000000000815260040180806020018281038252600c8152602001807f72656a6563742076616c7565000000000000000000000000000000000000000081525060200191505060405180910390fd5b5b610fa533613a0a565b565b6000806000600d80549050841015611046576000600d8581548110610fc857fe5b90600052602060002001549050600c600082815260200190815260200160002060000160009054906101000a900473ffffffffffffffffffffffffffffffffffffffff16600c600083815260200190815260200160002060010154600c60008481526020019081526020016000206002015493509350935050611047565b5b9193909250565b6000601054600f546007540103905090565b6000600754600f5460056000600460008773ffffffffffffffffffffffffffffffffffffffff1673ffffffffffffffffffffffffffffffffffffffff1681526020019081526020016000205481526020019081526020016000206001015402816110c657fe5b049050919050565b3373ffffffffffffffffffffffffffffffffffffffff16600860009054906101000a900473ffffffffffffffffffffffffffffffffffffffff1673ffffffffffffffffffffffffffffffffffffffff1614611198576000611197576040517f08c379a000000000000000000000000000000000000000000000000000000000815260040180806020018281038252600e8152602001807f4f6e6c7920666f72206f776e657200000000000000000000000000000000000081525060200191505060405180910390fd5b5b60003414611215576000611214576040517f08c379a000000000000000000000000000000000000000000000000000000000815260040180806020018281038252600c8152602001807f72656a6563742076616c7565000000000000000000000000000000000000000081525060200191505060405180910390fd5b5b6001600960146101000a81548160ff021916908315150217905550565b60065481565b6000600460003373ffffffffffffffffffffffffffffffffffffffff1673ffffffffffffffffffffffffffffffffffffffff1681526020019081526020016000205414156112f55760006112f4576040517f08c379a00000000000000000000000000000000000000000000000000000000081526004018080602001828103825260128152602001807f4f6e6c7920666f7220696e766573746f7273000000000000000000000000000081525060200191505060405180910390fd5b5b600a60000160009054906101000a900473ffffffffffffffffffffffffffffffffffffffff1673ffffffffffffffffffffffffffffffffffffffff16600a60000160009054906101000a900473ffffffffffffffffffffffffffffffffffffffff1673ffffffffffffffffffffffffffffffffffffffff16146113e0576040517f08c379a000000000000000000000000000000000000000000000000000000000815260040180806020018281038252600f8152602001807f496e76616c69642061646472657373000000000000000000000000000000000081525060200191505060405180910390fd5b600960149054906101000a900460ff16611469576000611468576040517f08c379a00000000000000000000000000000000000000000000000000000000081526004018080602001828103825260178152602001807f436f6e7472616374206973206e6f742073746f7070656400000000000000000081525060200191505060405180910390fd5b5b600034146114e65760006114e5576040517f08c379a000000000000000000000000000000000000000000000000000000000815260040180806020018281038252600c8152602001807f72656a6563742076616c7565000000000000000000000000000000000000000081525060200191505060405180910390fd5b5b8060056000600460003373ffffffffffffffffffffffffffffffffffffffff1673ffffffffffffffffffffffffffffffffffffffff16815260200190815260200160002054815260200190815260200160002060020160006101000a81548160ff02191690831515021790555050565b3373ffffffffffffffffffffffffffffffffffffffff16600860009054906101000a900473ffffffffffffffffffffffffffffffffffffffff1673ffffffffffffffffffffffffffffffffffffffff161461162057600061161f576040517f08c379a000000000000000000000000000000000000000000000000000000000815260040180806020018281038252600e8152602001807f4f6e6c7920666f72206f776e657200000000000000000000000000000000000081525060200191505060405180910390fd5b5b6000341461169d57600061169c576040517f08c379a000000000000000000000000000000000000000000000000000000000815260040180806020018281038252600c8152602001807f72656a6563742076616c7565000000000000000000000000000000000000000081525060200191505060405180910390fd5b5b80600960006101000a81548173ffffffffffffffffffffffffffffffffffffffff021916908373ffffffffffffffffffffffffffffffffffffffff16021790555050565b3373ffffffffffffffffffffffffffffffffffffffff16600860009054906101000a900473ffffffffffffffffffffffffffffffffffffffff1673ffffffffffffffffffffffffffffffffffffffff16146117ab5760006117aa576040517f08c379a000000000000000000000000000000000000000000000000000000000815260040180806020018281038252600e8152602001807f4f6e6c7920666f72206f776e657200000000000000000000000000000000000081525060200191505060405180910390fd5b5b60003414611828576000611827576040517f08c379a000000000000000000000000000000000000000000000000000000000815260040180806020018281038252600c8152602001807f72656a6563742076616c7565000000000000000000000000000000000000000081525060200191505060405180910390fd5b5b600060065490506000600190505b81811161188a5761187d600560006001815260200190815260200160002060000160009054906101000a900473ffffffffffffffffffffffffffffffffffffffff16613a0a565b8080600101915050611836565b5050565b60105481565b600960149054906101000a900460ff1681565b60056020528060005260406000206000915090508060000160009054906101000a900473ffffffffffffffffffffffffffffffffffffffff16908060010154908060020160009054906101000a900460ff16905083565b600080600190506000600190505b60065481116119aa576119546005600084815260200190815260200160002060000160009054906101000a900473ffffffffffffffffffffffffffffffffffffffff166134c5565b6119936005600084815260200190815260200160002060000160009054906101000a900473ffffffffffffffffffffffffffffffffffffffff166134c5565b101561199d578091505b808060010191505061190c565b508091505090565b600960149054906101000a900460ff16611a3b576000611a3a576040517f08c379a00000000000000000000000000000000000000000000000000000000081526004018080602001828103825260178152602001807f436f6e7472616374206973206e6f742073746f7070656400000000000000000081525060200191505060405180910390fd5b5b3373ffffffffffffffffffffffffffffffffffffffff16600860009054906101000a900473ffffffffffffffffffffffffffffffffffffffff1673ffffffffffffffffffffffffffffffffffffffff1614611b05576000611b04576040517f08c379a000000000000000000000000000000000000000000000000000000000815260040180806020018281038252600e8152602001807f4f6e6c7920666f72206f776e657200000000000000000000000000000000000081525060200191505060405180910390fd5b5b60003414611b82576000611b81576040517f08c379a000000000000000000000000000000000000000000000000000000000815260040180806020018281038252600c8152602001807f72656a6563742076616c7565000000000000000000000000000000000000000081525060200191505060405180910390fd5b5b6000600190505b6006548111611bc5576005600082815260200190815260200160002060020160006101000a81549060ff02191690558080600101915050611b89565b5060405180604001604052808273ffffffffffffffffffffffffffffffffffffffff16815260200142815250600a60008201518160000160006101000a81548173ffffffffffffffffffffffffffffffffffffffff021916908373ffffffffffffffffffffffffffffffffffffffff160217905550602082015181600101559050507ffc136941d6f5a7fa31fea543bdc05be2e77ce86110b5fe83706976590c0d399560405160405180910390a150565b600080600080600080600080600080611c8d61104e565b90506000611c99612057565b90508161232860be606466470de4df820000600e54601054600f540387600d805490509a509a509a509a509a509a509a509a509a505050909192939495969798565b3373ffffffffffffffffffffffffffffffffffffffff16600860009054906101000a900473ffffffffffffffffffffffffffffffffffffffff1673ffffffffffffffffffffffffffffffffffffffff1614611da5576000611da4576040517f08c379a000000000000000000000000000000000000000000000000000000000815260040180806020018281038252600e8152602001807f4f6e6c7920666f72206f776e657200000000000000000000000000000000000081525060200191505060405180910390fd5b5b600960149054906101000a900460ff16611e2e576000611e2d576040517f08c379a00000000000000000000000000000000000000000000000000000000081526004018080602001828103825260178152602001807f436f6e7472616374206973206e6f742073746f7070656400000000000000000081525060200191505060405180910390fd5b5b60003414611eab576000611eaa576040517f08c379a000000000000000000000000000000000000000000000000000000000815260040180806020018281038252600c8152602001807f72656a6563742076616c7565000000000000000000000000000000000000000081525060200191505060405180910390fd5b5b611eb481613a0a565b600a600080820160006101000a81549073ffffffffffffffffffffffffffffffffffffffff02191690556001820160009055505050565b600a8060000160009054906101000a900473ffffffffffffffffffffffffffffffffffffffff16908060010154905082565b60008066071afd498d00009050600061232860be612710030361271002612328611f4561104e565b6064020281611f5057fe5b049050809250505090565b6000600154905090565b600f5481565b3373ffffffffffffffffffffffffffffffffffffffff16600860009054906101000a900473ffffffffffffffffffffffffffffffffffffffff1673ffffffffffffffffffffffffffffffffffffffff1614612035576000612034576040517f08c379a000000000000000000000000000000000000000000000000000000000815260040180806020018281038252600e8152602001807f4f6e6c7920666f72206f776e657200000000000000000000000000000000000081525060200191505060405180910390fd5b5b8060028190555050565b60046020528060005260406000206000915090505481565b6000600a60065414156120b757600061206e6118fe565b90506120af6005600083815260200190815260200160002060000160009054906101000a900473ffffffffffffffffffffffffffffffffffffffff166134c5565b9150506120bc565b600090505b90565b60008066071afd498d0000905066470de4df82000091505090565b3373ffffffffffffffffffffffffffffffffffffffff16600860009054906101000a900473ffffffffffffffffffffffffffffffffffffffff1673ffffffffffffffffffffffffffffffffffffffff16146121a45760006121a3576040517f08c379a000000000000000000000000000000000000000000000000000000000815260040180806020018281038252600e8152602001807f4f6e6c7920666f72206f776e657200000000000000000000000000000000000081525060200191505060405180910390fd5b5b60003414612221576000612220576040517f08c379a000000000000000000000000000000000000000000000000000000000815260040180806020018281038252600c8152602001807f72656a6563742076616c7565000000000000000000000000000000000000000081525060200191505060405180910390fd5b5b80600860006101000a81548173ffffffffffffffffffffffffffffffffffffffff021916908373ffffffffffffffffffffffffffffffffffffffff16021790555050565b7f000000000000000000000000000000000000000000000000000000000000000073ffffffffffffffffffffffffffffffffffffffff163373ffffffffffffffffffffffffffffffffffffffff1614612326576040517f08c379a000000000000000000000000000000000000000000000000000000000815260040180806020018281038252601f8152602001807f4f6e6c7920565246436f6f7264696e61746f722063616e2066756c66696c6c0081525060200191505060405180910390fd5b6123308282613d7a565b5050565b3373ffffffffffffffffffffffffffffffffffffffff16600860009054906101000a900473ffffffffffffffffffffffffffffffffffffffff1673ffffffffffffffffffffffffffffffffffffffff16146123fe5760006123fd576040517f08c379a000000000000000000000000000000000000000000000000000000000815260040180806020018281038252600e8152602001807f4f6e6c7920666f72206f776e657200000000000000000000000000000000000081525060200191505060405180910390fd5b5b7f000000000000000000000000000000000000000000000000000000000000000073ffffffffffffffffffffffffffffffffffffffff1663a9059cbb83836040518363ffffffff1660e01b8152600401808373ffffffffffffffffffffffffffffffffffffffff1673ffffffffffffffffffffffffffffffffffffffff16815260200182815260200192505050602060405180830381600087803b1580156124a557600080fd5b505af11580156124b9573d6000803e3d6000fd5b505050506040513d60208110156124cf57600080fd5b8101908080519060200190929190505050612552576040517f08c379a000000000000000000000000000000000000000000000000000000000815260040180806020018281038252600f8152602001807f4e6f7420656e6f756768204c494e4b000000000000000000000000000000000081525060200191505060405180910390fd5b5050565b3373ffffffffffffffffffffffffffffffffffffffff16600860009054906101000a900473ffffffffffffffffffffffffffffffffffffffff1673ffffffffffffffffffffffffffffffffffffffff161461262057600061261f576040517f08c379a000000000000000000000000000000000000000000000000000000000815260040180806020018281038252600e8152602001807f4f6e6c7920666f72206f776e657200000000000000000000000000000000000081525060200191505060405180910390fd5b5b8060018190555050565b600960149054906101000a900460ff16156126b45760006126b3576040517f08c379a00000000000000000000000000000000000000000000000000000000081526004018080602001828103825260138152602001807f436f6e74726163742069732073746f707065640000000000000000000000000081525060200191505060405180910390fd5b5b6000341415612732576000612731576040517f08c379a00000000000000000000000000000000000000000000000000000000081526004018080602001828103825260138152602001807f4f6e6c79206d6f7265207468616e207a65726f0000000000000000000000000081525060200191505060405180910390fd5b5b6000600460003373ffffffffffffffffffffffffffffffffffffffff1673ffffffffffffffffffffffffffffffffffffffff1681526020019081526020016000205414156127ef5760006127ee576040517f08c379a00000000000000000000000000000000000000000000000000000000081526004018080602001828103825260128152602001807f4f6e6c7920666f7220696e766573746f7273000000000000000000000000000081525060200191505060405180910390fd5b5b6127f76141d6565b3460056000600460003373ffffffffffffffffffffffffffffffffffffffff1673ffffffffffffffffffffffffffffffffffffffff1681526020019081526020016000205481526020019081526020016000206001016000828254019250508190555034600760008282540192505081905550565b3373ffffffffffffffffffffffffffffffffffffffff16600860009054906101000a900473ffffffffffffffffffffffffffffffffffffffff1673ffffffffffffffffffffffffffffffffffffffff1614612936576000612935576040517f08c379a000000000000000000000000000000000000000000000000000000000815260040180806020018281038252600e8152602001807f4f6e6c7920666f72206f776e657200000000000000000000000000000000000081525060200191505060405180910390fd5b5b600034146129b35760006129b2576040517f08c379a000000000000000000000000000000000000000000000000000000000815260040180806020018281038252600c8152602001807f72656a6563742076616c7565000000000000000000000000000000000000000081525060200191505060405180910390fd5b5b6000600960146101000a81548160ff021916908315150217905550565b60075481565b3373ffffffffffffffffffffffffffffffffffffffff16600860009054906101000a900473ffffffffffffffffffffffffffffffffffffffff1673ffffffffffffffffffffffffffffffffffffffff1614612aa0576000612a9f576040517f08c379a000000000000000000000000000000000000000000000000000000000815260040180806020018281038252600e8152602001807f4f6e6c7920666f72206f776e657200000000000000000000000000000000000081525060200191505060405180910390fd5b5b7f000000000000000000000000000000000000000000000000000000000000000073ffffffffffffffffffffffffffffffffffffffff1663a9059cbb337f000000000000000000000000000000000000000000000000000000000000000073ffffffffffffffffffffffffffffffffffffffff166370a08231306040518263ffffffff1660e01b8152600401808273ffffffffffffffffffffffffffffffffffffffff1673ffffffffffffffffffffffffffffffffffffffff16815260200191505060206040518083038186803b158015612b7a57600080fd5b505afa158015612b8e573d6000803e3d6000fd5b505050506040513d6020811015612ba457600080fd5b81019080805190602001909291905050506040518363ffffffff1660e01b8152600401808373ffffffffffffffffffffffffffffffffffffffff1673ffffffffffffffffffffffffffffffffffffffff16815260200182815260200192505050602060405180830381600087803b158015612c1e57600080fd5b505af1158015612c32573d6000803e3d6000fd5b505050506040513d6020811015612c4857600080fd5b8101908080519060200190929190505050612ccb576040517f08c379a00000000000000000000000000000000000000000000000000000000081526004018080602001828103825260128152602001807f556e61626c6520746f207472616e73666572000000000000000000000000000081525060200191505060405180910390fd5b565b3373ffffffffffffffffffffffffffffffffffffffff16600860009054906101000a900473ffffffffffffffffffffffffffffffffffffffff1673ffffffffffffffffffffffffffffffffffffffff1614612d97576000612d96576040517f08c379a000000000000000000000000000000000000000000000000000000000815260040180806020018281038252600e8152602001807f4f6e6c7920666f72206f776e657200000000000000000000000000000000000081525060200191505060405180910390fd5b5b806161a8811015612e17576000612e16576040517f08c379a000000000000000000000000000000000000000000000000000000000815260040180806020018281038252601a8152602001807f476173206973206c657373207468616e20676173206c696d697400000000000081525060200191505060405180910390fd5b5b60003414612e94576000612e93576040517f08c379a000000000000000000000000000000000000000000000000000000000815260040180806020018281038252600c8152602001807f72656a6563742076616c7565000000000000000000000000000000000000000081525060200191505060405180910390fd5b5b816003819055505050565b600e5481565b6000600254905090565b6000600d80549050905090565b600060075460105460056000600460008773ffffffffffffffffffffffffffffffffffffffff1673ffffffffffffffffffffffffffffffffffffffff168152602001908152602001600020548152602001908152602001600020600101540281612f2257fe5b049050919050565b3373ffffffffffffffffffffffffffffffffffffffff16600860009054906101000a900473ffffffffffffffffffffffffffffffffffffffff1673ffffffffffffffffffffffffffffffffffffffff1614612ff4576000612ff3576040517f08c379a000000000000000000000000000000000000000000000000000000000815260040180806020018281038252600e8152602001807f4f6e6c7920666f72206f776e657200000000000000000000000000000000000081525060200191505060405180910390fd5b5b600a60000160009054906101000a900473ffffffffffffffffffffffffffffffffffffffff1673ffffffffffffffffffffffffffffffffffffffff16600a60000160009054906101000a900473ffffffffffffffffffffffffffffffffffffffff1673ffffffffffffffffffffffffffffffffffffffff16146130df576040517f08c379a000000000000000000000000000000000000000000000000000000000815260040180806020018281038252600f8152602001807f496e76616c69642061646472657373000000000000000000000000000000000081525060200191505060405180910390fd5b600960149054906101000a900460ff16613168576000613167576040517f08c379a00000000000000000000000000000000000000000000000000000000081526004018080602001828103825260178152602001807f436f6e7472616374206973206e6f742073746f7070656400000000000000000081525060200191505060405180910390fd5b5b4262093a80600a600101540111156131d25760006131d1576040517f08c379a0000000000000000000000000000000000000000000000000000000008152600401808060200182810382526024815260200180614a5c6024913960400191505060405180910390fd5b5b6000341461324f57600061324e576040517f08c379a000000000000000000000000000000000000000000000000000000000815260040180806020018281038252600c8152602001807f72656a6563742076616c7565000000000000000000000000000000000000000081525060200191505060405180910390fd5b5b6000804790506000600190505b60065481116132d157600115156005600083815260200190815260200160002060020160009054906101000a900460ff16151514156132c45782806001019350506005600082815260200190815260200160002060020160006101000a81549060ff02191690555b808060010191505061325c565b506064600654600a02816132e157fe5b04821061346957600a60000160009054906101000a900473ffffffffffffffffffffffffffffffffffffffff1673ffffffffffffffffffffffffffffffffffffffff166108fc479081150290604051600060405180830381858888f193505050506133d3577f3b66c41562b841e29923849dc45ac54e17eb64f534c62109ba2cc1e977f8ddaf600a60000160009054906101000a900473ffffffffffffffffffffffffffffffffffffffff16604051808273ffffffffffffffffffffffffffffffffffffffff1673ffffffffffffffffffffffffffffffffffffffff16815260200191505060405180910390a1613464565b7f969fa9d259520e00fd561cbd5c523032e2682528b2be25d2380088b332503814600a60000160009054906101000a900473ffffffffffffffffffffffffffffffffffffffff1682604051808373ffffffffffffffffffffffffffffffffffffffff1673ffffffffffffffffffffffffffffffffffffffff1681526020018281526020019250505060405180910390a15b6134c1565b60006134c0576040517f08c379a0000000000000000000000000000000000000000000000000000000008152600401808060200182810382526029815260200180614a336029913960400191505060405180910390fd5b5b5050565b60006134d082612ebc565b6134d983611060565b60056000600460008773ffffffffffffffffffffffffffffffffffffffff1673ffffffffffffffffffffffffffffffffffffffff1681526020019081526020016000205481526020019081526020016000206001015401039050919050565b600960149054906101000a900460ff16156135c25760006135c1576040517f08c379a00000000000000000000000000000000000000000000000000000000081526004018080602001828103825260138152602001807f436f6e74726163742069732073746f707065640000000000000000000000000081525060200191505060405180910390fd5b5b600034141561364057600061363f576040517f08c379a00000000000000000000000000000000000000000000000000000000081526004018080602001828103825260138152602001807f4f6e6c79206d6f7265207468616e207a65726f0000000000000000000000000081525060200191505060405180910390fd5b5b6000600460003373ffffffffffffffffffffffffffffffffffffffff1673ffffffffffffffffffffffffffffffffffffffff16815260200190815260200160002054146136fc5760006136fb576040517f08c379a00000000000000000000000000000000000000000000000000000000081526004018080602001828103825260168152602001807f4f6e6c7920666f72206e6f7420696e766573746f72730000000000000000000081525060200191505060405180910390fd5b5b613704612057565b341161377f57600061377e576040517f08c379a000000000000000000000000000000000000000000000000000000000815260040180806020018281038252601d8152602001807f4f6e6c79206d6f7265207468616e206d696e20696e766573746d656e7400000081525060200191505060405180910390fd5b5b6137876141d6565b600a60065414156137df57600061379c6118fe565b90506137dd6005600083815260200190815260200160002060000160009054906101000a900473ffffffffffffffffffffffffffffffffffffffff16613a0a565b505b6006600081548092919060010191905055506137fc6006546142d4565b565b60007f000000000000000000000000000000000000000000000000000000000000000073ffffffffffffffffffffffffffffffffffffffff16634000aea07f00000000000000000000000000000000000000000000000000000000000000008486600060405160200180838152602001828152602001925050506040516020818303038152906040526040518463ffffffff1660e01b8152600401808473ffffffffffffffffffffffffffffffffffffffff1673ffffffffffffffffffffffffffffffffffffffff16815260200183815260200180602001828103825283818151815260200191508051906020019080838360005b8381101561390e5780820151818401526020810190506138f3565b50505050905090810190601f16801561393b5780820380516001836020036101000a031916815260200191505b50945050505050602060405180830381600087803b15801561395c57600080fd5b505af1158015613970573d6000803e3d6000fd5b505050506040513d602081101561398657600080fd5b81019080805190602001909291905050505060006139b9846000306000808981526020019081526020016000205461439b565b90506139e160016000808781526020019081526020016000205461441590919063ffffffff16565b60008086815260200190815260200160002081905550613a01848261449d565b91505092915050565b806000613a16826134c5565b10613d7657613a236141d6565b6000600460008473ffffffffffffffffffffffffffffffffffffffff1673ffffffffffffffffffffffffffffffffffffffff1681526020019081526020016000205490506000613a72846134c5565b9050600560008381526020019081526020016000206001015460076000828254039250508190555060006127106032830281613aaa57fe5b049050808203915060056000848152602001908152602001600020600080820160006101000a81549073ffffffffffffffffffffffffffffffffffffffff021916905560018201600090556002820160006101000a81549060ff02191690555050600460008673ffffffffffffffffffffffffffffffffffffffff1673ffffffffffffffffffffffffffffffffffffffff168152602001908152602001600020600090556006548314613d2957613b5f6149c2565b6005600060065481526020019081526020016000206040518060600160405290816000820160009054906101000a900473ffffffffffffffffffffffffffffffffffffffff1673ffffffffffffffffffffffffffffffffffffffff1673ffffffffffffffffffffffffffffffffffffffff168152602001600182015481526020016002820160009054906101000a900460ff16151515158152505090508360046000836000015173ffffffffffffffffffffffffffffffffffffffff1673ffffffffffffffffffffffffffffffffffffffff16815260200190815260200160002081905550806005600086815260200190815260200160002060008201518160000160006101000a81548173ffffffffffffffffffffffffffffffffffffffff021916908373ffffffffffffffffffffffffffffffffffffffff1602179055506020820151816001015560408201518160020160006101000a81548160ff021916908315150217905550905050600560006006548152602001908152602001600020600080820160006101000a81549073ffffffffffffffffffffffffffffffffffffffff021916905560018201600090556002820160006101000a81549060ff02191690555050505b60066000815480929190600190039190505550613d4685836144d6565b613d72600960009054906101000a900473ffffffffffffffffffffffffffffffffffffffff16826144d6565b5050505b5050565b81613d836149fb565b600c60008381526020019081526020016000206040518060600160405290816000820160009054906101000a900473ffffffffffffffffffffffffffffffffffffffff1673ffffffffffffffffffffffffffffffffffffffff1673ffffffffffffffffffffffffffffffffffffffff168152602001600182015481526020016002820154815250509050600081604001511115613e8f576000613e8e576040517f08c379a00000000000000000000000000000000000000000000000000000000081526004018080602001828103825260118152602001807f416c72656164792070726f63657373656400000000000000000000000000000081525060200191505060405180910390fd5b5b8383613e996149fb565b600c60008481526020019081526020016000206040518060600160405290816000820160009054906101000a900473ffffffffffffffffffffffffffffffffffffffff1673ffffffffffffffffffffffffffffffffffffffff1673ffffffffffffffffffffffffffffffffffffffff16815260200160018201548152602001600282015481525050905060008290506001811080613f38575061271081115b8015613f48575060008260400151145b15613f84576201869f600c600086815260200190815260200160002060020181905550613f7d826000015183602001516144d6565b50506141ce565b87613f8d6149fb565b600c60008381526020019081526020016000206040518060600160405290816000820160009054906101000a900473ffffffffffffffffffffffffffffffffffffffff1673ffffffffffffffffffffffffffffffffffffffff1673ffffffffffffffffffffffffffffffffffffffff16815260200160018201548152602001600282015481525050905061271061402261104e565b6064028161402c57fe5b046123288060be61271003038360200151028161404557fe5b0411614192576000614074600161406660148d61476c90919063ffffffff16565b61441590919063ffffffff16565b905061407e6149fb565b600c60008d81526020019081526020016000206040518060600160405290816000820160009054906101000a900473ffffffffffffffffffffffffffffffffffffffff1673ffffffffffffffffffffffffffffffffffffffff1673ffffffffffffffffffffffffffffffffffffffff16815260200160018201548152602001600282015481525050905081600c60008e81526020019081526020016000206002018190555061412d81836147f6565b61413781836148c1565b8060200151600e60008282540192505081905550601160006101000a81549060ff0219169055818c7f909dd726737b7ffa4ae9d137e9edebe8a74a9c2910a4b60e8112f93ab217083760405160405180910390a350506141c8565b6201869f600c6000848152602001908152602001600020600201819055506141c2816000015182602001516144d6565b506141ca565b505b5050505b505050505050565b601160009054906101000a900460ff166142d257600080600190505b60065481116142a15760006005600083815260200190815260200160002060000160009054906101000a900473ffffffffffffffffffffffffffffffffffffffff169050600061424182611060565b9050600061424e83612ebc565b9050808203600560008681526020019081526020016000206001016000828254019250508190555060056000858152602001908152602001600020600101548501945050505080806001019150506141f2565b50600f60009055601060009055806007819055506001601160006101000a81548160ff021916908315150217905550505b565b80600460003373ffffffffffffffffffffffffffffffffffffffff1673ffffffffffffffffffffffffffffffffffffffff16815260200190815260200160002081905550336005600083815260200190815260200160002060000160006101000a81548173ffffffffffffffffffffffffffffffffffffffff021916908373ffffffffffffffffffffffffffffffffffffffff1602179055503460056000838152602001908152602001600020600101819055503460076000828254019250508190555050565b600084848484604051602001808581526020018481526020018373ffffffffffffffffffffffffffffffffffffffff1673ffffffffffffffffffffffffffffffffffffffff1681526020018281526020019450505050506040516020818303038152906040528051906020012060001c9050949350505050565b600080828401905083811015614493576040517f08c379a000000000000000000000000000000000000000000000000000000000815260040180806020018281038252601b8152602001807f536166654d6174683a206164646974696f6e206f766572666c6f77000000000081525060200191505060405180910390fd5b8091505092915050565b60008282604051602001808381526020018281526020019250505060405160208183030381529060405280519060200120905092915050565b8047101561450f577f9bc0f7b8676ac8a3d913fc962a472bc40103acaa27e5477c1eadfbb7d4897a0460405160405180910390a1614768565b60008273ffffffffffffffffffffffffffffffffffffffff1660035483604051806000019050600060405180830381858888f193505050503d8060008114614573576040519150601f19603f3d011682016040523d82523d6000602084013e614578565b606091505b5050905080614766577f3d14263aec0db87097e504ee7aca5316e879b2cc7f3b29f9c62d40e9bae04cee8383604051808373ffffffffffffffffffffffffffffffffffffffff1673ffffffffffffffffffffffffffffffffffffffff1681526020018281526020019250505060405180910390a1600960009054906101000a900473ffffffffffffffffffffffffffffffffffffffff1673ffffffffffffffffffffffffffffffffffffffff168373ffffffffffffffffffffffffffffffffffffffff1614614765576000600960009054906101000a900473ffffffffffffffffffffffffffffffffffffffff1673ffffffffffffffffffffffffffffffffffffffff1660035484604051806000019050600060405180830381858888f193505050503d80600081146146c7576040519150601f19603f3d011682016040523d82523d6000602084013e6146cc565b606091505b5050905080614763577f3d14263aec0db87097e504ee7aca5316e879b2cc7f3b29f9c62d40e9bae04cee600960009054906101000a900473ffffffffffffffffffffffffffffffffffffffff1684604051808373ffffffffffffffffffffffffffffffffffffffff1673ffffffffffffffffffffffffffffffffffffffff1681526020018281526020019250505060405180910390a15b505b5b505b5050565b6000808214156147e4576040517f08c379a00000000000000000000000000000000000000000000000000000000081526004018080602001828103825260188152602001807f536166654d6174683a206d6f64756c6f206279207a65726f000000000000000081525060200191505060405180910390fd5b8183816147ed57fe5b06905092915050565b806123286001820310156148bc57600061232860be612710038560200151028161481c57fe5b0490507f8f25eec129b997ba51175c8f2583cafbfc0c076ef19e2c455869730f969ec44d84600001518483604051808473ffffffffffffffffffffffffffffffffffffffff1673ffffffffffffffffffffffffffffffffffffffff168152602001838152602001828152602001935050505060405180910390a16148a48460000151826144d6565b83602001518103601060008282540192505081905550505b505050565b8061232860018203106149bd577fcb9c7189736051e86837ee4847c751bad47c86cb506933875ff8fabf9eeda008836000015183604051808373ffffffffffffffffffffffffffffffffffffffff1673ffffffffffffffffffffffffffffffffffffffff1681526020018281526020019250505060405180910390a161494c836000015160016144d6565b612710605a612710036001856020015103028161496557fe5b04600f600082825401925050819055506000612710605a6001866020015103028161498c57fe5b0490506149bb600960009054906101000a900473ffffffffffffffffffffffffffffffffffffffff16826144d6565b505b505050565b6040518060600160405280600073ffffffffffffffffffffffffffffffffffffffff168152602001600081526020016000151581525090565b6040518060600160405280600073ffffffffffffffffffffffffffffffffffffffff1681526020016000815260200160008152509056fe4572726f72206f63637572656420647572696e6720656d657267656e6379207769746864726177616c4f6e6c7920696620656d657267656e63792074696d656f757420686173207061737365645472616e73616374696f6e206d757374206d6f7265207468616e206f6e65204574686572a264697066735822122001d29e8f41fbfcecf4d5963c6f840e56af158f8a8d9b3d1be2f92a6370884f7164736f6c63430006060033",
  "immutableReferences": {
    "2573": [
      {
        "length": 32,
        "start": 9216
      },
      {
        "length": 32,
        "start": 10914
      },
      {
        "length": 32,
        "start": 10975
      },
      {
        "length": 32,
        "start": 14338
      }
    ],
    "2575": [
      {
        "length": 32,
        "start": 8807
      },
      {
        "length": 32,
        "start": 14398
      }
    ]
  },
  "source": "pragma solidity ^0.6.6;\n\nimport \"@chainlink/contracts/src/v0.6/VRFConsumerBase.sol\";\nimport \"@chainlink/contracts/src/v0.6/ChainlinkClient.sol\";\n\n//import \"@chainlink/contracts/src/v0.6/Owned.sol\";\n\n/**\n * @notice A Chainlink VRF consumer which uses randomness to mimic the rolling\n * of a 20 sided die\n */\ncontract Dice is VRFConsumerBase {\n    //contract Dice {\n\n    using SafeMathChainlink for uint256;\n\n    uint256 private constant ROLL_IN_PROGRESS = 42;\n\n    bytes32 private s_keyHash;\n    uint256 private s_fee;\n    //mapping(bytes32 => address) private s_rollers;\n    //mapping(address => uint256) private s_results;\n\n    event DiceRolled(bytes32 indexed requestId, address indexed roller);\n    event DiceLanded(bytes32 indexed requestId, uint256 indexed result);\n\n    //uint256 public pwin = 5000; //probability of winning (10000 = 100%)\n    //uint256 public edge = 200; //edge percentage (10000 = 100%)\n    //uint256 public maxWin = 100; //max win (before edge is taken) as percentage of bankroll (10000 = 100%)\n    //uint256 public minBet = 10 finney; //https://www.cryps.info/en/Finney_to_ETH/1/ - https://eth-converter.com/\n    //uint256 public maxInvestors = 5; //maximum number of investors\n    //uint256 public houseEdge = 50; //edge percentage (10000 = 100%)\n    //uint256 public divestFee = 50; //divest fee percentage (10000 = 100%)\n    //uint256 public emergencyWithdrawalRatio = 90; //ratio percentage (100 = 100%)\n\n    uint256 constant pwin = 9000; //probability of winning (10000 = 100%)\n    uint256 constant edge = 190; //edge percentage (10000 = 100%)\n    uint256 constant maxWin = 100; //max win (before edge is taken) as percentage of bankroll (10000 = 100%)\n    uint256 constant minBet = 20 finney;\n    uint256 constant maxInvestors = 10; //maximum number of investors\n    uint256 constant houseEdge = 90; //edge percentage (10000 = 100%)\n    uint256 constant divestFee = 50; //divest fee percentage (10000 = 100%)\n    uint256 constant emergencyWithdrawalRatio = 10; //ratio percentage (100 = 100%)\n\n    uint256 safeGas = 25000;\n    uint256 constant ORACLIZE_GAS_LIMIT = 125000;\n    uint256 constant INVALID_BET_MARKER = 99999;\n    uint256 constant EMERGENCY_TIMEOUT = 7 days;\n\n    struct Investor {\n        address investorAddress;\n        uint256 amountInvested;\n        bool votedForEmergencyWithdrawal;\n    }\n\n    struct Bet {\n        address playerAddress;\n        uint256 amountBetted;\n        uint256 numberRolled;\n    }\n\n    struct WithdrawalProposal {\n        address payable toAddress;\n        uint256 atTime;\n    }\n\n    //Starting at 1\n    mapping(address => uint256) public investorIDs;\n    mapping(uint256 => Investor) public investors;\n    uint256 public numInvestors = 0;\n\n    uint256 public invested = 0;\n\n    address owner;\n    address houseAddress;\n    bool public isStopped;\n\n    WithdrawalProposal public proposedWithdrawal;\n\n    mapping(bytes32 => Bet) bets;\n    bytes32[] betsKeys;\n\n    uint256 public amountWagered = 0;\n    uint256 public investorsProfit = 0;\n    uint256 public investorsLoses = 0;\n    bool profitDistributed;\n\n    event BetWon(\n        address playerAddress,\n        uint256 numberRolled,\n        uint256 amountWon\n    );\n    event BetLost(address playerAddress, uint256 numberRolled);\n    event EmergencyWithdrawalProposed();\n    event EmergencyWithdrawalFailed(address withdrawalAddress);\n    event EmergencyWithdrawalSucceeded(\n        address withdrawalAddress,\n        uint256 amountWithdrawn\n    );\n    event FailedSend(address receiver, uint256 amount);\n    event ValueIsTooBig();\n\n    /**\n     * @notice Constructor inherits VRFConsumerBase\n     *\n     * @dev NETWORK: KOVAN\n     * @dev   Chainlink VRF Coordinator address: 0xdD3782915140c8f3b190B5D67eAc6dc5760C46E9\n     * @dev   LINK token address:                0xa36085F69e2889c224210F603D836748e7dC0088\n     * @dev   Key Hash:   0x6c3699283bda56ad74f6b855546325b68d482e983852a7a82979cc4807b641f4\n     * @dev   Fee:        0.1 LINK (100000000000000000)\n     *\n     * @param vrfCoordinator address of the VRF Coordinator\n     * @param link address of the LINK token\n     * @param keyHash bytes32 representing the hash of the VRF job\n     * @param fee uint256 fee to pay the VRF oracle\n     */\n    // constructor(address vrfCoordinator, address link, bytes32 keyHash, uint256 fee)\n    //    public\n    //     VRFConsumerBase(vrfCoordinator, link)\n    // {\n    //    s_keyHash = keyHash;\n    //    s_fee = fee;\n\n    //}\n\n    /**\n     * Constructor inherits VRFConsumerBase\n     *\n     * Network: Kovan\n     * Chainlink VRF Coordinator address: 0xdD3782915140c8f3b190B5D67eAc6dc5760C46E9\n     * LINK token address:                0xa36085F69e2889c224210F603D836748e7dC0088\n     * Key Hash: 0x6c3699283bda56ad74f6b855546325b68d482e983852a7a82979cc4807b641f4\n     */\n    constructor()\n        public\n        VRFConsumerBase(\n            0xdD3782915140c8f3b190B5D67eAc6dc5760C46E9, // VRF Coordinator\n            0xa36085F69e2889c224210F603D836748e7dC0088 // LINK Token\n        )\n    {\n        owner = msg.sender;\n        houseAddress = msg.sender;\n\n        s_keyHash = 0x6c3699283bda56ad74f6b855546325b68d482e983852a7a82979cc4807b641f4;\n        s_fee = 0.1 * 10**18; // 0.1 LINK\n    }\n\n    // function Dice(\n    //   uint256 pwinInitial,\n    //   uint256 edgeInitial,\n    //   uint256 maxWinInitial,\n    //   uint256 minBetInitial,\n    //   uint256 maxInvestorsInitial,\n    //   uint256 houseEdgeInitial,\n    //   uint256 divestFeeInitial,\n    //   uint256 emergencyWithdrawalRatioInitial\n    // ) {\n    //   // OAR = OraclizeAddrResolverI(0x6f485C8BF6fc43eA212E93BBF8ce046C7f1cb475);\n    //   // oraclize_setProof(proofType_TLSNotary | proofStorage_IPFS);\n\n    //   pwin = pwinInitial;\n    //   edge = edgeInitial;\n    //   maxWin = maxWinInitial;\n    //   minBet = minBetInitial;\n    //   maxInvestors = maxInvestorsInitial;\n    //   houseEdge = houseEdgeInitial;\n    //   divestFee = divestFeeInitial;\n    //   emergencyWithdrawalRatio = emergencyWithdrawalRatioInitial;\n    //   owner = msg.sender;\n    //   houseAddress = msg.sender;\n    // }\n\n    //SECTION I: MODIFIERS AND HELPER FUNCTIONS\n\n    //MODIFIERS\n\n    modifier onlyIfNotStopped {\n        if (isStopped) require(false, \"Contract is stopped\");\n        _;\n    }\n\n    modifier onlyIfStopped {\n        if (!isStopped) require(false, \"Contract is not stopped\");\n        _;\n    }\n\n    modifier onlyInvestors {\n        if (investorIDs[msg.sender] == 0) require(false, \"Only for investors\");\n        _;\n    }\n\n    modifier onlyNotInvestors {\n        if (investorIDs[msg.sender] != 0)\n            require(false, \"Only for not investors\");\n        _;\n    }\n\n    modifier onlyOwner {\n        if (owner != msg.sender) require(false, \"Only for owner\");\n        _;\n    }\n\n    //modifier onlyOraclize {\n    //  if (msg.sender != oraclize_cbAddress()) throw;\n    //_;\n    //}\n\n    modifier onlyMoreThanMinInvestment {\n        if (msg.value <= getMinInvestment())\n            require(false, \"Only more than min investment\");\n        _;\n    }\n\n    modifier onlyMoreThanZero {\n        if (msg.value == 0) require(false, \"Only more than zero\");\n        _;\n    }\n\n    modifier onlyIfBetSizeIsStillCorrect(bytes32 myid) {\n        Bet memory thisBet = bets[myid];\n        if (\n            (((thisBet.amountBetted * ((10000 - edge) - pwin)) / pwin) <=\n                (maxWin * getBankroll()) / 10000)\n        ) {\n            _;\n        } else {\n            bets[myid].numberRolled = INVALID_BET_MARKER;\n            safeSend(thisBet.playerAddress, thisBet.amountBetted);\n            return;\n        }\n    }\n\n    modifier onlyIfValidRoll(bytes32 myid, uint256 result) {\n        Bet memory thisBet = bets[myid];\n        //uint256 numberRolled = parseInt(result);\n        uint256 numberRolled = result;\n\n        if (\n            (numberRolled < 1 || numberRolled > 10000) &&\n            thisBet.numberRolled == 0\n        ) {\n            bets[myid].numberRolled = INVALID_BET_MARKER;\n            safeSend(thisBet.playerAddress, thisBet.amountBetted);\n            return;\n        }\n        _;\n    }\n\n    modifier onlyIfInvestorBalanceIsPositive(address currentInvestor) {\n        if (getBalance(currentInvestor) >= 0) {\n            _;\n        }\n    }\n\n    modifier onlyWinningBets(uint256 numberRolled) {\n        if (numberRolled - 1 < pwin) {\n            _;\n        }\n    }\n\n    modifier onlyLosingBets(uint256 numberRolled) {\n        if (numberRolled - 1 >= pwin) {\n            _;\n        }\n    }\n\n    modifier onlyAfterProposed {\n        require(\n            proposedWithdrawal.toAddress ==\n                address(proposedWithdrawal.toAddress),\n            \"Invalid address\"\n        );\n        //if (proposedWithdrawal.toAddress == 0) require(false, 'Only after proposed');\n        _;\n    }\n\n    modifier rejectValue {\n        if (msg.value != 0) require(false, \"reject value\");\n        _;\n    }\n\n    modifier onlyIfProfitNotDistributed {\n        if (!profitDistributed) {\n            _;\n        }\n    }\n\n    modifier onlyIfValidGas(uint256 newGasLimit) {\n        if (newGasLimit < 25000) require(false, \"Gas is less than gas limit\");\n        _;\n    }\n\n    modifier onlyIfNotProcessed(bytes32 myid) {\n        Bet memory thisBet = bets[myid];\n        if (thisBet.numberRolled > 0) require(false, \"Already processed\");\n        _;\n    }\n\n    modifier onlyIfEmergencyTimeOutHasPassed {\n        if (proposedWithdrawal.atTime + EMERGENCY_TIMEOUT > now)\n            require(false, \"Only if emergency timeout has passed\");\n        _;\n    }\n\n    //function toUint256(bytes memory _bytes)\n    // internal\n    // pure\n    //returns (uint256 value) {\n\n    //    assembly {\n    //    value := mload(add(_bytes, 0x20))\n    //   }\n    //}\n\n    //function stringToBytes32(string memory source) public pure returns (bytes memory result) {\n    //   bytes memory tempEmptyStringTest = bytes(source);\n    //    if (tempEmptyStringTest.length == 0) {\n    //    return \"0x0\";\n    //  }\n\n    //    assembly {\n    //        result := mload(add(source, 32))\n    //   }\n    //}\n\n    //CONSTANT HELPER FUNCTIONS\n\n    function getBankroll() public view returns (uint256) {\n        return invested + investorsProfit - investorsLoses;\n    }\n\n    function getMinInvestment() public view returns (uint256) {\n        if (numInvestors == maxInvestors) {\n            uint256 investorID = searchSmallestInvestor();\n            return getBalance(investors[investorID].investorAddress);\n        } else {\n            return 0;\n        }\n    }\n\n    function getStatus()\n        public\n        view\n        returns (\n            uint256,\n            uint256,\n            uint256,\n            uint256,\n            uint256,\n            uint256,\n            uint256,\n            uint256,\n            uint256\n        )\n    {\n        uint256 bankroll = getBankroll();\n\n        uint256 minInvestment = getMinInvestment();\n\n        return (\n            bankroll,\n            pwin,\n            edge,\n            maxWin,\n            minBet,\n            amountWagered,\n            (investorsProfit - investorsLoses),\n            minInvestment,\n            betsKeys.length\n        );\n    }\n\n    function getBet(uint256 id)\n        public\n        view\n        returns (\n            address,\n            uint256,\n            uint256\n        )\n    {\n        if (id < betsKeys.length) {\n            bytes32 betKey = betsKeys[id];\n            return (\n                bets[betKey].playerAddress,\n                bets[betKey].amountBetted,\n                bets[betKey].numberRolled\n            );\n        }\n    }\n\n    function numBets() public view returns (uint256) {\n        return betsKeys.length;\n    }\n\n    function getMinBetAmount() public view returns (uint256) {\n        //TODO update this line by converting LINK fees to ETH fees\n        uint256 oraclizeFee = 2 finney;\n\n        //return oraclizeFee + minBet;\n        return minBet;\n    }\n\n    function getMaxBetAmount() public view returns (uint256) {\n        //TODO update this line by converting LINK fees to ETH fees\n        uint256 oraclizeFee = 2 finney;\n\n        uint256 betValue = ((maxWin * getBankroll()) * pwin) /\n            (10000 * (10000 - edge - pwin));\n\n        //return betValue + oraclizeFee;\n        return betValue;\n    }\n\n    function getLosesShare(address currentInvestor)\n        public\n        view\n        returns (uint256)\n    {\n        return\n            (investors[investorIDs[currentInvestor]].amountInvested *\n                (investorsLoses)) / invested;\n    }\n\n    function getProfitShare(address currentInvestor)\n        public\n        view\n        returns (uint256)\n    {\n        return\n            (investors[investorIDs[currentInvestor]].amountInvested *\n                (investorsProfit)) / invested;\n    }\n\n    function getBalance(address currentInvestor) public view returns (uint256) {\n        return\n            investors[investorIDs[currentInvestor]].amountInvested +\n            getProfitShare(currentInvestor) -\n            getLosesShare(currentInvestor);\n    }\n\n    function searchSmallestInvestor() public view returns (uint256) {\n        uint256 investorID = 1;\n        for (uint256 i = 1; i <= numInvestors; i++) {\n            if (\n                getBalance(investors[i].investorAddress) <\n                getBalance(investors[investorID].investorAddress)\n            ) {\n                investorID = i;\n            }\n        }\n\n        return investorID;\n    }\n\n    // PRIVATE HELPERS FUNCTION\n\n    function safeSend(address addr, uint256 value) private {\n        if (address(this).balance < value) {\n            emit ValueIsTooBig();\n            return;\n        }\n\n        //TODO keep a litle to send transactions\n\n        (bool success, ) = addr.call.gas(safeGas).value(value)(\"\");\n        //require(success, \"Transfer failed.\");\n        if (!success) {\n            //if (!(addr.call.gas(safeGas).value(value)(\"\"))) {\n            FailedSend(addr, value);\n            if (addr != houseAddress) {\n                //Forward to house address all change\n                (bool success, ) = houseAddress.call.gas(safeGas).value(value)(\n                    \"\"\n                );\n                if (!success) {\n                    //if (!(houseAddress.call.gas(safeGas).value(value)()))\n                    FailedSend(houseAddress, value);\n                    //require(success, \"Transfer to House failed.\");\n                }\n            }\n        }\n    }\n\n    function addInvestorAtID(uint256 id) private {\n        investorIDs[msg.sender] = id;\n        investors[id].investorAddress = msg.sender;\n        investors[id].amountInvested = msg.value;\n        invested += msg.value;\n    }\n\n    function profitDistribution() private onlyIfProfitNotDistributed {\n        uint256 copyInvested;\n\n        for (uint256 i = 1; i <= numInvestors; i++) {\n            address currentInvestor = investors[i].investorAddress;\n            uint256 profitOfInvestor = getProfitShare(currentInvestor);\n            uint256 losesOfInvestor = getLosesShare(currentInvestor);\n            investors[i].amountInvested += profitOfInvestor - losesOfInvestor;\n            copyInvested += investors[i].amountInvested;\n        }\n\n        delete investorsProfit;\n        delete investorsLoses;\n        invested = copyInvested;\n\n        profitDistributed = true;\n    }\n\n    //function random() private view returns (uint) {\n    //  return uint(keccak256(block.difficulty, now));\n    //}\n\n    //function random() private view returns (uint8) {\n    //  return uint8(uint256(keccak256(block.timestamp, block.difficulty))%251);\n    //}\n\n    // SECTION II: BET & BET PROCESSING\n    //function() {\n    receive() external payable {\n        // bet(0);\n        bet();\n    }\n\n    // function bet(uint256 userProvidedSeed)\n    function bet()\n        public\n        payable\n        onlyIfNotStopped\n        onlyMoreThanZero\n        onlyMoreThanMinInvestment\n    {\n        //require(LINK.balanceOf(address(this)) >= s_fee, \"Not enough LINK to pay fee\");\n\n        //TODO update this line by converting LINK fees to ETH fees\n        uint256 oraclizeFee = 2 finney;\n\n        //uint256 betValue = msg.value - oraclizeFee;\n        uint256 betValue = msg.value;\n\n        if (\n            (((betValue * ((10000 - edge) - pwin)) / pwin) <=\n                (maxWin * getBankroll()) / 10000)\n        ) {\n            //require(false, 'PROUT');\n\n            //bytes32 myid = \"getrandom number\";\n            // bytes32 myid = investorIDs[msg.sender];\n\n            //TODO Add this line require(s_results[roller] == 0, \"Already rolled\");\n\n            // bytes32 myid = requestRandomness(\n            //     s_keyHash,\n            //     s_fee,\n            //     userProvidedSeed\n            // );\n            bytes32 myid = requestRandomness(s_keyHash, s_fee);\n\n            //TODO : Call __callback method after generating random number\n\n            // encrypted arg: '\\n{\"jsonrpc\":2.0,\"method\":\"generateSignedIntegers\",\"params\":{\"apiKey\":\"YOUR_API_KEY\",\"n\":1,\"min\":1,\"max\":10000},\"id\":1}'\n            // oraclize_query(\n            //   \"URL\",\n            // \"json(https://api.random.org/json-rpc/1/invoke).result.random.data.0\",\n            //\"BBX1PCQ9134839wTz10OWxXCaZaGk92yF6TES8xA+8IC7xNBlJq5AL0uW3rev7IoApA5DMFmCfKGikjnNbNglKKvwjENYPB8TBJN9tDgdcYNxdWnsYARKMqmjrJKYbBAiws+UU6HrJXUWirO+dBSSJbmjIg+9vmBjSq8KveiBzSGmuQhu7/hSg5rSsSP/r+MhR/Q5ECrOHi+CkP/qdSUTA/QhCCjdzFu+7t3Hs7NU34a+l7JdvDlvD8hoNxyKooMDYNbUA8/eFmPv2d538FN6KJQp+RKr4w4VtAMHdejrLM=\",\n            //ORACLIZE_GAS_LIMIT + safeGas\n            //);\n\n            bets[myid] = Bet(msg.sender, betValue, 0);\n            betsKeys.push(myid);\n            emit DiceRolled(myid, msg.sender);\n        } else {\n            require(false, \"Transaction must more than one Ether\");\n        }\n    }\n\n    /**\n     * @notice Callback function used by VRF Coordinator to return the random number\n     * to this contract.\n     * @dev Some action on the contract state should be taken here, like storing the result.\n     * @dev WARNING: take care to avoid having multiple VRF requests in flight if their order of arrival would result\n     * in contract states with different outcomes. Otherwise miners or the VRF operator would could take advantage\n     * by controlling the order.\n     * @dev The VRF Coordinator will only send this function verified responses, and the parent VRFConsumerBase\n     * contract ensures that this method only receives randomness from the designated VRFCoordinator.\n     *\n     * @param requestId bytes32\n     * @param randomness The random result returned by the oracle\n     */\n    function fulfillRandomness(bytes32 requestId, uint256 randomness)\n        internal\n        override\n        onlyIfNotProcessed(requestId)\n        onlyIfValidRoll(requestId, randomness)\n        onlyIfBetSizeIsStillCorrect(requestId)\n    {\n        uint256 d20Value = randomness.mod(20).add(1);\n\n        Bet memory thisBet = bets[requestId];\n        //uint256 numberRolled = parseInt(result);\n\n        bets[requestId].numberRolled = d20Value;\n        isWinningBet(thisBet, d20Value);\n        isLosingBet(thisBet, d20Value);\n        amountWagered += thisBet.amountBetted;\n        delete profitDistributed;\n\n        //s_results[s_rollers[requestId]] = d20Value;\n        emit DiceLanded(requestId, d20Value);\n    }\n\n    // function rollDice(\n    //     bytes32 myid,\n    //        string memory result,\n    //        bytes memory proof\n    //    )\n    //   public\n    //     // onlyOraclize\n    //   onlyIfNotProcessed(myid)\n    // onlyIfValidRoll(myid, result)\n    //   onlyIfBetSizeIsStillCorrect(myid)\n    //{\n    //   Bet memory thisBet = bets[myid];\n    //  //uint256 numberRolled = parseInt(result);\n    //    uint256 numberRolled = toUint256(stringToBytes32(result));\n    //   bets[myid].numberRolled = numberRolled;\n    //  isWinningBet(thisBet, numberRolled);\n    //    isLosingBet(thisBet, numberRolled);\n    //   amountWagered += thisBet.amountBetted;\n    //  delete profitDistributed;\n    //}\n\n    function isWinningBet(Bet memory thisBet, uint256 numberRolled)\n        private\n        onlyWinningBets(numberRolled)\n    {\n        uint256 winAmount = (thisBet.amountBetted * (10000 - edge)) / pwin;\n        BetWon(thisBet.playerAddress, numberRolled, winAmount);\n        safeSend(thisBet.playerAddress, winAmount);\n        investorsLoses += (winAmount - thisBet.amountBetted);\n    }\n\n    function isLosingBet(Bet memory thisBet, uint256 numberRolled)\n        private\n        onlyLosingBets(numberRolled)\n    {\n        BetLost(thisBet.playerAddress, numberRolled);\n        safeSend(thisBet.playerAddress, 1);\n        investorsProfit +=\n            ((thisBet.amountBetted - 1) * (10000 - houseEdge)) /\n            10000;\n        uint256 houseProfit = ((thisBet.amountBetted - 1) * (houseEdge)) /\n            10000;\n        safeSend(houseAddress, houseProfit);\n    }\n\n    //SECTION III: INVEST & DIVEST\n\n    function increaseInvestment()\n        public\n        payable\n        onlyIfNotStopped\n        onlyMoreThanZero\n        onlyInvestors\n    {\n        profitDistribution();\n        investors[investorIDs[msg.sender]].amountInvested += msg.value;\n        invested += msg.value;\n    }\n\n    // function newInvestor()\n    //payable\n    //   onlyIfNotStopped\n    //onlyMoreThanZero\n    // onlyNotInvestors\n    // onlyMoreThanMinInvestment\n    //{\n    // profitDistribution();\n\n    //if (numInvestors == maxInvestors) {\n    //  uint256 smallestInvestorID = searchSmallestInvestor();\n    //    divest(investors[smallestInvestorID].investorAddress);\n    //}\n\n    //  numInvestors++;\n    //addInvestorAtID(numInvestors);\n    //}\n\n    function newInvestor()\n        public\n        payable\n        onlyIfNotStopped\n        onlyMoreThanZero\n        onlyNotInvestors\n        onlyMoreThanMinInvestment\n    {\n        profitDistribution();\n\n        if (numInvestors == maxInvestors) {\n            uint256 smallestInvestorID = searchSmallestInvestor();\n            divest(investors[smallestInvestorID].investorAddress);\n        }\n\n        numInvestors++;\n        addInvestorAtID(numInvestors);\n    }\n\n    function divest() public payable onlyInvestors rejectValue {\n        divest(msg.sender);\n    }\n\n    function divest(address currentInvestor)\n        private\n        onlyIfInvestorBalanceIsPositive(currentInvestor)\n    {\n        profitDistribution();\n        uint256 currentID = investorIDs[currentInvestor];\n        uint256 amountToReturn = getBalance(currentInvestor);\n        invested -= investors[currentID].amountInvested;\n        uint256 divestFeeAmount = (amountToReturn * divestFee) / 10000;\n        amountToReturn -= divestFeeAmount;\n\n        delete investors[currentID];\n        delete investorIDs[currentInvestor];\n        //Reorder investors\n\n        if (currentID != numInvestors) {\n            // Get last investor\n            Investor memory lastInvestor = investors[numInvestors];\n            //Set last investor ID to investorID of divesting account\n            investorIDs[lastInvestor.investorAddress] = currentID;\n            //Copy investor at the new position in the mapping\n            investors[currentID] = lastInvestor;\n            //Delete old position in the mappping\n            delete investors[numInvestors];\n        }\n\n        numInvestors--;\n        safeSend(currentInvestor, amountToReturn);\n        safeSend(houseAddress, divestFeeAmount);\n    }\n\n    function forceDivestOfAllInvestors() public payable onlyOwner rejectValue {\n        uint256 copyNumInvestors = numInvestors;\n        for (uint256 i = 1; i <= copyNumInvestors; i++) {\n            divest(investors[1].investorAddress);\n        }\n    }\n\n    /*\n    The owner can use this function to force the exit of an investor from the\n    contract during an emergency withdrawal in the following situations:\n        - Unresponsive investor\n        - Investor demanding to be paid in other to vote, the facto-blackmailing\n        other investors\n    */\n    function forceDivestOfOneInvestor(address currentInvestor)\n        public\n        payable\n        onlyOwner\n        onlyIfStopped\n        rejectValue\n    {\n        divest(currentInvestor);\n        //Resets emergency withdrawal proposal. Investors must vote again\n        delete proposedWithdrawal;\n    }\n\n    //SECTION IV: CONTRACT MANAGEMENT\n\n    function stopContract() public payable onlyOwner rejectValue {\n        isStopped = true;\n    }\n\n    function resumeContract() public payable onlyOwner rejectValue {\n        isStopped = false;\n    }\n\n    function changeHouseAddress(address newHouse)\n        public\n        payable\n        onlyOwner\n        rejectValue\n    {\n        houseAddress = newHouse;\n    }\n\n    function changeOwnerAddress(address newOwner)\n        public\n        payable\n        onlyOwner\n        rejectValue\n    {\n        owner = newOwner;\n    }\n\n    function changeGasLimitOfSafeSend(uint256 newGasLimit)\n        public\n        payable\n        onlyOwner\n        onlyIfValidGas(newGasLimit)\n        rejectValue\n    {\n        safeGas = newGasLimit;\n    }\n\n    //SECTION V: EMERGENCY WITHDRAWAL\n\n    function voteEmergencyWithdrawal(bool vote)\n        public\n        payable\n        onlyInvestors\n        onlyAfterProposed\n        onlyIfStopped\n        rejectValue\n    {\n        investors[investorIDs[msg.sender]].votedForEmergencyWithdrawal = vote;\n    }\n\n    function proposeEmergencyWithdrawal(address payable withdrawalAddress)\n        public\n        payable\n        onlyIfStopped\n        onlyOwner\n        rejectValue\n    {\n        //Resets previous votes\n        for (uint256 i = 1; i <= numInvestors; i++) {\n            delete investors[i].votedForEmergencyWithdrawal;\n        }\n\n        proposedWithdrawal = WithdrawalProposal(withdrawalAddress, now);\n        emit EmergencyWithdrawalProposed();\n    }\n\n    function executeEmergencyWithdrawal()\n        public\n        payable\n        onlyOwner\n        onlyAfterProposed\n        onlyIfStopped\n        onlyIfEmergencyTimeOutHasPassed\n        rejectValue\n    {\n        uint256 numOfVotesInFavour;\n        uint256 amountToWithdrawal = address(this).balance;\n\n        for (uint256 i = 1; i <= numInvestors; i++) {\n            if (investors[i].votedForEmergencyWithdrawal == true) {\n                numOfVotesInFavour++;\n                delete investors[i].votedForEmergencyWithdrawal;\n            }\n        }\n\n        if (\n            numOfVotesInFavour >=\n            (emergencyWithdrawalRatio * numInvestors) / 100\n        ) {\n            if (!proposedWithdrawal.toAddress.send(address(this).balance)) {\n                EmergencyWithdrawalFailed(proposedWithdrawal.toAddress);\n            } else {\n                EmergencyWithdrawalSucceeded(\n                    proposedWithdrawal.toAddress,\n                    amountToWithdrawal\n                );\n            }\n        } else {\n            require(false, \"Error occured during emergency withdrawal\");\n        }\n    }\n\n    /**\n     * @notice Withdraw LINK from this contract.\n     * @dev this is an example only, and in a real contract withdrawals should\n     * happen according to the established withdrawal pattern:\n     * https://docs.soliditylang.org/en/v0.4.24/common-patterns.html#withdrawal-from-contracts\n     * @param to the address to withdraw LINK to\n     * @param value the amount of LINK to withdraw\n     */\n    function withdrawLINK(address to, uint256 value) public onlyOwner {\n        require(LINK.transfer(to, value), \"Not enough LINK\");\n    }\n\n    /**\n     * Withdraw LINK from this contract\n     *\n     */\n    function withdrawAllLink() public onlyOwner {\n        require(\n            LINK.transfer(msg.sender, LINK.balanceOf(address(this))),\n            \"Unable to transfer\"\n        );\n    }\n\n    /**\n     * @notice Set the key hash for the oracle\n     *\n     * @param keyHash bytes32\n     */\n    function setKeyHash(bytes32 keyHash) public onlyOwner {\n        s_keyHash = keyHash;\n    }\n\n    /**\n     * @notice Get the current key hash\n     *\n     * @return bytes32\n     */\n    function keyHash() public view returns (bytes32) {\n        return s_keyHash;\n    }\n\n    /**\n     * @notice Set the oracle fee for requesting randomness\n     *\n     * @param fee uint256\n     */\n    function setFee(uint256 fee) public onlyOwner {\n        s_fee = fee;\n    }\n\n    /**\n     * @notice Get the current fee\n     *\n     * @return uint256\n     */\n    function fee() public view returns (uint256) {\n        return s_fee;\n    }\n}\n",
  "sourcePath": "/Users/dieug_/Code/BlockChains/solidity-training-project/contracts/Dice.0.6.6.sol",
  "compiler": {
    "name": "solc",
    "version": "0.6.6+commit.6c089d02.Emscripten.clang"
  },
  "schemaVersion": "3.4.1",
  "updatedAt": "2021-06-26T09:55:45.143Z",
  "devdoc": {
    "methods": {
      "setFee(uint256)": {
        "params": {
          "fee": "uint256"
        }
      },
      "setKeyHash(bytes32)": {
        "params": {
          "keyHash": "bytes32"
        }
      },
      "withdrawLINK(address,uint256)": {
        "details": "this is an example only, and in a real contract withdrawals should happen according to the established withdrawal pattern: https://docs.soliditylang.org/en/v0.4.24/common-patterns.html#withdrawal-from-contracts",
        "params": {
          "to": "the address to withdraw LINK to",
          "value": "the amount of LINK to withdraw"
        }
      }
    }
  },
  "userdoc": {
    "methods": {
      "constructor": "Constructor inherits VRFConsumerBase     * Network: Kovan Chainlink VRF Coordinator address: 0xdD3782915140c8f3b190B5D67eAc6dc5760C46E9 LINK token address:                0xa36085F69e2889c224210F603D836748e7dC0088 Key Hash: 0x6c3699283bda56ad74f6b855546325b68d482e983852a7a82979cc4807b641f4",
      "fee()": {
        "notice": "Get the current fee"
      },
      "keyHash()": {
        "notice": "Get the current key hash"
      },
      "setFee(uint256)": {
        "notice": "Set the oracle fee for requesting randomness"
      },
      "setKeyHash(bytes32)": {
        "notice": "Set the key hash for the oracle"
      },
      "withdrawAllLink()": {
        "notice": "Withdraw LINK from this contract     "
      },
      "withdrawLINK(address,uint256)": {
        "notice": "Withdraw LINK from this contract."
      }
    },
    "notice": "A Chainlink VRF consumer which uses randomness to mimic the rolling of a 20 sided die"
  }
}