{
  "contractName": "PancakeDeposit",
  "abi": [
    {
      "inputs": [
        {
          "internalType": "address",
          "name": "factory_",
          "type": "address"
        },
        {
          "internalType": "contract IPancakeRouter02",
          "name": "router_",
          "type": "address"
        }
      ],
      "stateMutability": "nonpayable",
      "type": "constructor"
    },
    {
      "inputs": [
        {
          "internalType": "uint256",
          "name": "",
          "type": "uint256"
        }
      ],
      "name": "depositers",
      "outputs": [
        {
          "internalType": "address",
          "name": "",
          "type": "address"
        }
      ],
      "stateMutability": "view",
      "type": "function"
    },
    {
      "inputs": [],
      "name": "factory",
      "outputs": [
        {
          "internalType": "address",
          "name": "",
          "type": "address"
        }
      ],
      "stateMutability": "view",
      "type": "function"
    },
    {
      "inputs": [],
      "name": "owner",
      "outputs": [
        {
          "internalType": "address",
          "name": "",
          "type": "address"
        }
      ],
      "stateMutability": "view",
      "type": "function"
    },
    {
      "inputs": [],
      "name": "router",
      "outputs": [
        {
          "internalType": "contract IPancakeRouter02",
          "name": "",
          "type": "address"
        }
      ],
      "stateMutability": "view",
      "type": "function"
    },
    {
      "inputs": [
        {
          "internalType": "uint256",
          "name": "truePriceTokenA",
          "type": "uint256"
        },
        {
          "internalType": "uint256",
          "name": "truePriceTokenB",
          "type": "uint256"
        },
        {
          "internalType": "uint256",
          "name": "reserveA",
          "type": "uint256"
        },
        {
          "internalType": "uint256",
          "name": "reserveB",
          "type": "uint256"
        }
      ],
      "name": "computeProfitMaximizingTrade",
      "outputs": [
        {
          "internalType": "bool",
          "name": "aToB",
          "type": "bool"
        },
        {
          "internalType": "uint256",
          "name": "amountIn",
          "type": "uint256"
        }
      ],
      "stateMutability": "pure",
      "type": "function"
    },
    {
      "inputs": [
        {
          "internalType": "address",
          "name": "tokenA",
          "type": "address"
        },
        {
          "internalType": "address",
          "name": "tokenB",
          "type": "address"
        },
        {
          "internalType": "uint256",
          "name": "truePriceTokenA",
          "type": "uint256"
        },
        {
          "internalType": "uint256",
          "name": "truePriceTokenB",
          "type": "uint256"
        },
        {
          "internalType": "uint256",
          "name": "maxSpendTokenA",
          "type": "uint256"
        },
        {
          "internalType": "uint256",
          "name": "maxSpendTokenB",
          "type": "uint256"
        },
        {
          "internalType": "address",
          "name": "to",
          "type": "address"
        },
        {
          "internalType": "uint256",
          "name": "deadline",
          "type": "uint256"
        }
      ],
      "name": "swapToPrice",
      "outputs": [],
      "stateMutability": "nonpayable",
      "type": "function"
    }
  ],
  "bytecode": "0x60c060405234801561001057600080fd5b506040516114603803806114608339818101604052604081101561003357600080fd5b8101908080519060200190929190805190602001909291905050508173ffffffffffffffffffffffffffffffffffffffff1660a08173ffffffffffffffffffffffffffffffffffffffff1660601b815250508073ffffffffffffffffffffffffffffffffffffffff1660808173ffffffffffffffffffffffffffffffffffffffff1660601b81525050336000806101000a81548173ffffffffffffffffffffffffffffffffffffffff021916908373ffffffffffffffffffffffffffffffffffffffff160217905550505060805160601c60a05160601c61132a6101366000398061040c528061078752508061049d52806105a052806107e7525061132a6000f3fe608060405234801561001057600080fd5b50600436106100625760003560e01c80638da5cb5b14610067578063bef90fd3146100b1578063c45a015514610168578063f790c882146101b2578063f887ea4014610220578063fa6531541461026a575b600080fd5b61006f6102d5565b604051808273ffffffffffffffffffffffffffffffffffffffff1673ffffffffffffffffffffffffffffffffffffffff16815260200191505060405180910390f35b61016660048036036101008110156100c857600080fd5b81019080803573ffffffffffffffffffffffffffffffffffffffff169060200190929190803573ffffffffffffffffffffffffffffffffffffffff16906020019092919080359060200190929190803590602001909291908035906020019092919080359060200190929190803573ffffffffffffffffffffffffffffffffffffffff169060200190929190803590602001909291905050506102fa565b005b610170610785565b604051808273ffffffffffffffffffffffffffffffffffffffff1673ffffffffffffffffffffffffffffffffffffffff16815260200191505060405180910390f35b6101de600480360360208110156101c857600080fd5b81019080803590602001909291905050506107a9565b604051808273ffffffffffffffffffffffffffffffffffffffff1673ffffffffffffffffffffffffffffffffffffffff16815260200191505060405180910390f35b6102286107e5565b604051808273ffffffffffffffffffffffffffffffffffffffff1673ffffffffffffffffffffffffffffffffffffffff16815260200191505060405180910390f35b6102b46004803603608081101561028057600080fd5b8101908080359060200190929190803590602001909291908035906020019092919080359060200190929190505050610809565b60405180831515151581526020018281526020019250505060405180910390f35b6000809054906101000a900473ffffffffffffffffffffffffffffffffffffffff1681565b6000861415801561030c575060008514155b61037e576040517f08c379a000000000000000000000000000000000000000000000000000000000815260040180806020018281038252601e8152602001807f4578616d706c6553776170546f50726963653a205a45524f5f5052494345000081525060200191505060405180910390fd5b60008414158061038f575060008314155b610401576040517f08c379a000000000000000000000000000000000000000000000000000000000815260040180806020018281038252601e8152602001807f4578616d706c6553776170546f50726963653a205a45524f5f5350454e44000081525060200191505060405180910390fd5b6000806000806104327f00000000000000000000000000000000000000000000000000000000000000008d8d610910565b915091506104428a8a8484610809565b80945081955050505050600082610459578561045b565b865b905080821115610469578091505b600083610476578a610478565b8b5b9050600084610487578c610489565b8b5b905061049782333087610a45565b6104c2827f000000000000000000000000000000000000000000000000000000000000000086610c56565b6060600267ffffffffffffffff811180156104dc57600080fd5b5060405190808252806020026020018201604052801561050b5781602001602082028036833780820191505090505b509050828160008151811061051c57fe5b602002602001019073ffffffffffffffffffffffffffffffffffffffff16908173ffffffffffffffffffffffffffffffffffffffff1681525050818160018151811061056457fe5b602002602001019073ffffffffffffffffffffffffffffffffffffffff16908173ffffffffffffffffffffffffffffffffffffffff16815250507f000000000000000000000000000000000000000000000000000000000000000073ffffffffffffffffffffffffffffffffffffffff166338ed1739866000848c8c6040518663ffffffff1660e01b815260040180868152602001858152602001806020018473ffffffffffffffffffffffffffffffffffffffff1673ffffffffffffffffffffffffffffffffffffffff168152602001838152602001828103825285818151815260200191508051906020019060200280838360005b8381101561067657808201518184015260208101905061065b565b505050509050019650505050505050600060405180830381600087803b15801561069f57600080fd5b505af11580156106b3573d6000803e3d6000fd5b505050506040513d6000823e3d601f19601f8201168201806040525060208110156106dd57600080fd5b81019080805160405193929190846401000000008211156106fd57600080fd5b8382019150602082018581111561071357600080fd5b825186602082028301116401000000008211171561073057600080fd5b8083526020830192505050908051906020019060200280838360005b8381101561076757808201518184015260208101905061074c565b50505050905001604052505050505050505050505050505050505050565b7f000000000000000000000000000000000000000000000000000000000000000081565b600181815481106107b657fe5b906000526020600020016000915054906101000a900473ffffffffffffffffffffffffffffffffffffffff1681565b7f000000000000000000000000000000000000000000000000000000000000000081565b60008085836108218787610e4f90919063ffffffff16565b8161082857fe5b0410915060006108418486610e4f90919063ffffffff16565b905060006108a96108696103e586610859578a61085b565b895b610e4f90919063ffffffff16565b61089c6103e861088e8861087d578b61087f565b8c5b87610e4f90919063ffffffff16565b610e4f90919063ffffffff16565b816108a357fe5b04610ed5565b905060006103e5856108cf576108ca6103e888610e4f90919063ffffffff16565b6108e5565b6108e46103e889610e4f90919063ffffffff16565b5b816108ec57fe5b0490506109028183610f3790919063ffffffff16565b935050505094509492505050565b600080600061091f8585610fba565b50905061092d868686611131565b5060008061093c888888611131565b73ffffffffffffffffffffffffffffffffffffffff16630902f1ac6040518163ffffffff1660e01b815260040160606040518083038186803b15801561098157600080fd5b505afa158015610995573d6000803e3d6000fd5b505050506040513d60608110156109ab57600080fd5b81019080805190602001909291908051906020019092919080519060200190929190505050506dffffffffffffffffffffffffffff1691506dffffffffffffffffffffffffffff1691508273ffffffffffffffffffffffffffffffffffffffff168773ffffffffffffffffffffffffffffffffffffffff1614610a2f578082610a32565b81815b8095508196505050505050935093915050565b600060608573ffffffffffffffffffffffffffffffffffffffff166323b872dd868686604051602401808473ffffffffffffffffffffffffffffffffffffffff1673ffffffffffffffffffffffffffffffffffffffff1681526020018373ffffffffffffffffffffffffffffffffffffffff1673ffffffffffffffffffffffffffffffffffffffff16815260200182815260200193505050506040516020818303038152906040529060e01b6020820180517bffffffffffffffffffffffffffffffffffffffffffffffffffffffff83818316178352505050506040518082805190602001908083835b60208310610b525780518252602082019150602081019050602083039250610b2f565b6001836020036101000a0380198251168184511680821785525050505050509050019150506000604051808303816000865af19150503d8060008114610bb4576040519150601f19603f3d011682016040523d82523d6000602084013e610bb9565b606091505b5091509150818015610bf95750600081511480610bf85750808060200190516020811015610be657600080fd5b81019080805190602001909291905050505b5b610c4e576040517f08c379a00000000000000000000000000000000000000000000000000000000081526004018080602001828103825260248152602001806112d16024913960400191505060405180910390fd5b505050505050565b600060608473ffffffffffffffffffffffffffffffffffffffff1663095ea7b38585604051602401808373ffffffffffffffffffffffffffffffffffffffff1673ffffffffffffffffffffffffffffffffffffffff168152602001828152602001925050506040516020818303038152906040529060e01b6020820180517bffffffffffffffffffffffffffffffffffffffffffffffffffffffff83818316178352505050506040518082805190602001908083835b60208310610d2f5780518252602082019150602081019050602083039250610d0c565b6001836020036101000a0380198251168184511680821785525050505050509050019150506000604051808303816000865af19150503d8060008114610d91576040519150601f19603f3d011682016040523d82523d6000602084013e610d96565b606091505b5091509150818015610dd65750600081511480610dd55750808060200190516020811015610dc357600080fd5b81019080805190602001909291905050505b5b610e48576040517f08c379a000000000000000000000000000000000000000000000000000000000815260040180806020018281038252601e8152602001807f5472616e7366657248656c7065723a20415050524f56455f4641494c4544000081525060200191505060405180910390fd5b5050505050565b600080831415610e625760009050610ecf565b6000828402905082848281610e7357fe5b0414610eca576040517f08c379a00000000000000000000000000000000000000000000000000000000081526004018080602001828103825260218152602001806112b06021913960400191505060405180910390fd5b809150505b92915050565b60006003821115610f24578190506000600160028481610ef157fe5b040190505b81811015610f1e57809150600281828581610f0d57fe5b040181610f1657fe5b049050610ef6565b50610f32565b60008214610f3157600190505b5b919050565b600082821115610faf576040517f08c379a000000000000000000000000000000000000000000000000000000000815260040180806020018281038252601e8152602001807f536166654d6174683a207375627472616374696f6e206f766572666c6f77000081525060200191505060405180910390fd5b818303905092915050565b6000808273ffffffffffffffffffffffffffffffffffffffff168473ffffffffffffffffffffffffffffffffffffffff161415611042576040517f08c379a000000000000000000000000000000000000000000000000000000000815260040180806020018281038252602381526020018061128d6023913960400191505060405180910390fd5b8273ffffffffffffffffffffffffffffffffffffffff168473ffffffffffffffffffffffffffffffffffffffff161061107c57828461107f565b83835b8092508193505050600073ffffffffffffffffffffffffffffffffffffffff168273ffffffffffffffffffffffffffffffffffffffff16141561112a576040517f08c379a000000000000000000000000000000000000000000000000000000000815260040180806020018281038252601c8152602001807f50616e63616b654c6962726172793a205a45524f5f414444524553530000000081525060200191505060405180910390fd5b9250929050565b60008060006111408585610fba565b91509150858282604051602001808373ffffffffffffffffffffffffffffffffffffffff1673ffffffffffffffffffffffffffffffffffffffff1660601b81526014018273ffffffffffffffffffffffffffffffffffffffff1673ffffffffffffffffffffffffffffffffffffffff1660601b8152601401925050506040516020818303038152906040528051906020012060405160200180807fff000000000000000000000000000000000000000000000000000000000000008152506001018373ffffffffffffffffffffffffffffffffffffffff1673ffffffffffffffffffffffffffffffffffffffff1660601b8152601401828152602001807fd0d4c4cd0848c93cb4fd1f498d7013ee6bfb25783ea21593d5834f5d250ece66815250602001925050506040516020818303038152906040528051906020012060001c92505050939250505056fe50616e63616b654c6962726172793a204944454e544943414c5f414444524553534553536166654d6174683a206d756c7469706c69636174696f6e206f766572666c6f775472616e7366657248656c7065723a205452414e534645525f46524f4d5f4641494c4544a2646970667358221220e703d658c76dd004be2d7934a0734b2998f58499b886dc722d7175910d5f151964736f6c63430006060033",
  "immutableReferences": {
    "1790": [
      {
        "length": 32,
        "start": 1181
      },
      {
        "length": 32,
        "start": 1440
      },
      {
        "length": 32,
        "start": 2023
      }
    ],
    "1792": [
      {
        "length": 32,
        "start": 1036
      },
      {
        "length": 32,
        "start": 1927
      }
    ]
  },
  "source": "pragma solidity =0.6.6;\n\n// import \"@uniswap/v2-core/contracts/interfaces/IPancakePair.sol\";\nimport \"@uniswap/v2-core/contracts/interfaces/IUniswapV2Pair.sol\";\n\nimport \"@uniswap/lib/contracts/libraries/Babylonian.sol\";\nimport \"@uniswap/lib/contracts/libraries/TransferHelper.sol\";\n\nimport \"./interfaces/IERC20.sol\";\nimport \"./interfaces/IPancakeRouter02.sol\";\nimport \"./libraries/PancakeLibrary.sol\";\n\n// import \"./libraries/SafeMath.sol\";\nimport \"@openzeppelin/contracts/math/SafeMath.sol\";\n\n// import \"https://github.com/OpenZeppelin/openzeppelin-contracts/blob/master/contracts/math/SafeMath.sol\";\n\n// https://github.com/Morpher-io/MorpherProtocol/blob/master/contracts/MorpherStaking.sol\n// https://github.com/ApeSwapFinance/apeswap-swap-periphery/blob/master/contracts/examples/ExampleSwapToPrice.sol\n\n// https://github.com/pancakeswap/pancake-swap-periphery/blob/master/contracts/examples/ExampleSwapToPrice.sol\n\ncontract PancakeDeposit {\n    using SafeMath for uint256;\n\n    // IPancakeRouter01 public immutable router;\n    IPancakeRouter02 public immutable router;\n    address public immutable factory;\n\n    address public owner;\n    address[] public depositers;\n\n    // constructor(address factory_, IPancakeRouter01 router_) public {\n    constructor(address factory_, IPancakeRouter02 router_) public {\n        factory = factory_;\n        router = router_;\n\n        owner = msg.sender;\n    }\n\n    modifier onlyOwner {\n        if (owner != msg.sender) require(false, \"Only for owner\");\n        _;\n    }\n\n    modifier onlyMoreThanMinInvestment {\n        if (msg.value <= 0.1 ether)\n            require(false, \"Only more than min investment\");\n        _;\n    }\n\n    modifier onlyMoreThanZero {\n        if (msg.value == 0) require(false, \"Only more than zero\");\n        _;\n    }\n\n    // function deposit() {}\n\n    // function claim() {}\n\n    // function random() private view returns (uint256) {\n    //     return uint256(keccak256(block.difficulty, now, depositers));\n    // }\n\n    // computes the direction and magnitude of the profit-maximizing trade\n    function computeProfitMaximizingTrade(\n        uint256 truePriceTokenA,\n        uint256 truePriceTokenB,\n        uint256 reserveA,\n        uint256 reserveB\n    ) public pure returns (bool aToB, uint256 amountIn) {\n        aToB = reserveA.mul(truePriceTokenB) / reserveB < truePriceTokenA;\n\n        uint256 invariant = reserveA.mul(reserveB);\n\n        uint256 leftSide = Babylonian.sqrt(\n            invariant.mul(aToB ? truePriceTokenA : truePriceTokenB).mul(1000) /\n                uint256(aToB ? truePriceTokenB : truePriceTokenA).mul(997)\n        );\n        uint256 rightSide = (aToB ? reserveA.mul(1000) : reserveB.mul(1000)) /\n            997;\n\n        // compute the amount that must be sent to move the price to the profit-maximizing price\n        amountIn = leftSide.sub(rightSide);\n    }\n\n    // swaps an amount of either token such that the trade is profit-maximizing, given an external true price\n    // true price is expressed in the ratio of token A to token B\n    // caller must approve this contract to spend whichever token is intended to be swapped\n    function swapToPrice(\n        address tokenA,\n        address tokenB,\n        uint256 truePriceTokenA,\n        uint256 truePriceTokenB,\n        uint256 maxSpendTokenA,\n        uint256 maxSpendTokenB,\n        address to,\n        uint256 deadline\n    ) public {\n        // true price is expressed as a ratio, so both values must be non-zero\n        require(\n            truePriceTokenA != 0 && truePriceTokenB != 0,\n            \"ExampleSwapToPrice: ZERO_PRICE\"\n        );\n        // caller can specify 0 for either if they wish to swap in only one direction, but not both\n        require(\n            maxSpendTokenA != 0 || maxSpendTokenB != 0,\n            \"ExampleSwapToPrice: ZERO_SPEND\"\n        );\n\n        bool aToB;\n        uint256 amountIn;\n        {\n            (uint256 reserveA, uint256 reserveB) = PancakeLibrary.getReserves(\n                factory,\n                tokenA,\n                tokenB\n            );\n            (aToB, amountIn) = computeProfitMaximizingTrade(\n                truePriceTokenA,\n                truePriceTokenB,\n                reserveA,\n                reserveB\n            );\n        }\n\n        // spend up to the allowance of the token in\n        uint256 maxSpend = aToB ? maxSpendTokenA : maxSpendTokenB;\n        if (amountIn > maxSpend) {\n            amountIn = maxSpend;\n        }\n\n        address tokenIn = aToB ? tokenA : tokenB;\n        address tokenOut = aToB ? tokenB : tokenA;\n        TransferHelper.safeTransferFrom(\n            tokenIn,\n            msg.sender,\n            address(this),\n            amountIn\n        );\n        TransferHelper.safeApprove(tokenIn, address(router), amountIn);\n\n        address[] memory path = new address[](2);\n        path[0] = tokenIn;\n        path[1] = tokenOut;\n\n        router.swapExactTokensForTokens(\n            amountIn,\n            0, // amountOutMin: we can skip computing this number because the math is tested\n            path,\n            to,\n            deadline\n        );\n    }\n}\n",
  "sourcePath": "/Users/dieug_/Code/BlockChains/solidity-training-project/contracts/PancakeDeposit.sol",
  "compiler": {
    "name": "solc",
    "version": "0.6.6+commit.6c089d02.Emscripten.clang"
  },
  "schemaVersion": "3.4.1",
  "updatedAt": "2021-06-26T09:54:49.932Z",
  "devdoc": {
    "methods": {}
  },
  "userdoc": {
    "methods": {}
  }
}