{
  "contractName": "Stacking",
  "abi": [
    {
      "inputs": [],
      "stateMutability": "nonpayable",
      "type": "constructor"
    },
    {
      "stateMutability": "payable",
      "type": "fallback"
    },
    {
      "inputs": [],
      "name": "admin",
      "outputs": [
        {
          "internalType": "address",
          "name": "",
          "type": "address"
        }
      ],
      "stateMutability": "view",
      "type": "function"
    },
    {
      "inputs": [],
      "name": "bankValue",
      "outputs": [
        {
          "internalType": "uint256",
          "name": "",
          "type": "uint256"
        }
      ],
      "stateMutability": "view",
      "type": "function"
    },
    {
      "inputs": [],
      "name": "cake",
      "outputs": [
        {
          "internalType": "contract IERC20",
          "name": "",
          "type": "address"
        }
      ],
      "stateMutability": "view",
      "type": "function"
    },
    {
      "inputs": [],
      "name": "cakeChef",
      "outputs": [
        {
          "internalType": "contract CakeChef",
          "name": "",
          "type": "address"
        }
      ],
      "stateMutability": "view",
      "type": "function"
    },
    {
      "inputs": [
        {
          "internalType": "address",
          "name": "",
          "type": "address"
        }
      ],
      "name": "investors",
      "outputs": [
        {
          "internalType": "uint256",
          "name": "amount",
          "type": "uint256"
        },
        {
          "internalType": "uint256",
          "name": "minTimeToWithdraw",
          "type": "uint256"
        },
        {
          "internalType": "uint8",
          "name": "flag",
          "type": "uint8"
        },
        {
          "internalType": "uint256",
          "name": "startBlockNumber",
          "type": "uint256"
        },
        {
          "internalType": "uint256",
          "name": "stopBlockNumber",
          "type": "uint256"
        },
        {
          "internalType": "uint256",
          "name": "rewards",
          "type": "uint256"
        },
        {
          "internalType": "bool",
          "name": "isWin",
          "type": "bool"
        }
      ],
      "stateMutability": "view",
      "type": "function"
    },
    {
      "inputs": [],
      "name": "isStopped",
      "outputs": [
        {
          "internalType": "bool",
          "name": "",
          "type": "bool"
        }
      ],
      "stateMutability": "view",
      "type": "function"
    },
    {
      "inputs": [],
      "name": "totalInvested",
      "outputs": [
        {
          "internalType": "uint256",
          "name": "",
          "type": "uint256"
        }
      ],
      "stateMutability": "view",
      "type": "function"
    },
    {
      "stateMutability": "payable",
      "type": "receive"
    },
    {
      "inputs": [],
      "name": "stopContract",
      "outputs": [],
      "stateMutability": "nonpayable",
      "type": "function"
    },
    {
      "inputs": [],
      "name": "resumeContract",
      "outputs": [],
      "stateMutability": "nonpayable",
      "type": "function"
    },
    {
      "inputs": [
        {
          "internalType": "address",
          "name": "newHouse",
          "type": "address"
        }
      ],
      "name": "changeHouseAddress",
      "outputs": [],
      "stateMutability": "nonpayable",
      "type": "function"
    },
    {
      "inputs": [
        {
          "internalType": "address",
          "name": "newAdmin",
          "type": "address"
        }
      ],
      "name": "changeAdminAddress",
      "outputs": [],
      "stateMutability": "nonpayable",
      "type": "function"
    },
    {
      "inputs": [],
      "name": "pending",
      "outputs": [
        {
          "internalType": "uint256",
          "name": "",
          "type": "uint256"
        }
      ],
      "stateMutability": "view",
      "type": "function"
    },
    {
      "inputs": [],
      "name": "harvest",
      "outputs": [],
      "stateMutability": "nonpayable",
      "type": "function"
    },
    {
      "inputs": [],
      "name": "unstakeBank",
      "outputs": [],
      "stateMutability": "nonpayable",
      "type": "function"
    },
    {
      "inputs": [],
      "name": "unstakeAll",
      "outputs": [],
      "stateMutability": "nonpayable",
      "type": "function"
    },
    {
      "inputs": [],
      "name": "stake",
      "outputs": [],
      "stateMutability": "payable",
      "type": "function"
    },
    {
      "inputs": [],
      "name": "unstake",
      "outputs": [],
      "stateMutability": "payable",
      "type": "function"
    },
    {
      "inputs": [],
      "name": "balance",
      "outputs": [
        {
          "internalType": "uint256",
          "name": "",
          "type": "uint256"
        }
      ],
      "stateMutability": "view",
      "type": "function"
    }
  ],
  "bytecode": "0x6080604052730e09fabb73bd3ade0a17ecc321fd13a19e81ce82600460006101000a81548173ffffffffffffffffffffffffffffffffffffffff021916908373ffffffffffffffffffffffffffffffffffffffff1602179055507373feaa1ee314f8c655e354234017be2193c9e24e600560006101000a81548173ffffffffffffffffffffffffffffffffffffffff021916908373ffffffffffffffffffffffffffffffffffffffff1602179055503480156100ba57600080fd5b50336000806101000a81548173ffffffffffffffffffffffffffffffffffffffff021916908373ffffffffffffffffffffffffffffffffffffffff16021790555033600160006101000a81548173ffffffffffffffffffffffffffffffffffffffff021916908373ffffffffffffffffffffffffffffffffffffffff1602179055506000600160146101000a81548160ff02191690831515021790555060006002819055506000600381905550611f4c806101766000396000f3fe60806040526004361061010d5760003560e01c80635b21a60211610095578063b69ef8a811610064578063b69ef8a8146103af578063c4bc5da5146103da578063dce17484146103f1578063e20ccec314610448578063f851a440146104735761011d565b80635b21a6021461027d5780636f7bc9be1461029457806377a6dcf91461032d5780638823b229146103845761011d565b806335322f37116100dc57806335322f37146101eb5780633a4b66f1146102025780633f683b6a1461020c5780634641257d1461023b5780635216aeec146102525761011d565b80631021688f1461012857806312253a6c146101795780631efb17ee146101905780632def6620146101e15761011d565b3661011d5761011b346104ca565b005b610126346104ca565b005b34801561013457600080fd5b506101776004803603602081101561014b57600080fd5b81019080803573ffffffffffffffffffffffffffffffffffffffff169060200190929190505050610848565b005b34801561018557600080fd5b5061018e610954565b005b34801561019c57600080fd5b506101df600480360360208110156101b357600080fd5b81019080803573ffffffffffffffffffffffffffffffffffffffff169060200190929190505050610a39565b005b6101e9610b46565b005b3480156101f757600080fd5b50610200610e45565b005b61020a610fa9565b005b34801561021857600080fd5b50610221611084565b604051808215151515815260200191505060405180910390f35b34801561024757600080fd5b50610250611097565b005b34801561025e57600080fd5b506102676111f8565b6040518082815260200191505060405180910390f35b34801561028957600080fd5b506102926111fe565b005b3480156102a057600080fd5b506102e3600480360360208110156102b757600080fd5b81019080803573ffffffffffffffffffffffffffffffffffffffff169060200190929190505050611358565b604051808881526020018781526020018660ff1660ff1681526020018581526020018481526020018381526020018215151515815260200197505050505050505060405180910390f35b34801561033957600080fd5b506103426113b4565b604051808273ffffffffffffffffffffffffffffffffffffffff1673ffffffffffffffffffffffffffffffffffffffff16815260200191505060405180910390f35b34801561039057600080fd5b506103996113da565b6040518082815260200191505060405180910390f35b3480156103bb57600080fd5b506103c46113e0565b6040518082815260200191505060405180910390f35b3480156103e657600080fd5b506103ef6114f9565b005b3480156103fd57600080fd5b506104066115df565b604051808273ffffffffffffffffffffffffffffffffffffffff1673ffffffffffffffffffffffffffffffffffffffff16815260200191505060405180910390f35b34801561045457600080fd5b5061045d611605565b6040518082815260200191505060405180910390f35b34801561047f57600080fd5b506104886117b8565b604051808273ffffffffffffffffffffffffffffffffffffffff1673ffffffffffffffffffffffffffffffffffffffff16815260200191505060405180910390f35b600460009054906101000a900473ffffffffffffffffffffffffffffffffffffffff1673ffffffffffffffffffffffffffffffffffffffff166323b872dd3330846040518463ffffffff1660e01b8152600401808473ffffffffffffffffffffffffffffffffffffffff1673ffffffffffffffffffffffffffffffffffffffff1681526020018373ffffffffffffffffffffffffffffffffffffffff1673ffffffffffffffffffffffffffffffffffffffff1681526020018281526020019350505050602060405180830381600087803b1580156105a757600080fd5b505af11580156105bb573d6000803e3d6000fd5b505050506040513d60208110156105d157600080fd5b810190808051906020019092919050505050600460009054906101000a900473ffffffffffffffffffffffffffffffffffffffff1673ffffffffffffffffffffffffffffffffffffffff1663095ea7b3600560009054906101000a900473ffffffffffffffffffffffffffffffffffffffff16836040518363ffffffff1660e01b8152600401808373ffffffffffffffffffffffffffffffffffffffff1673ffffffffffffffffffffffffffffffffffffffff16815260200182815260200192505050602060405180830381600087803b1580156106ae57600080fd5b505af11580156106c2573d6000803e3d6000fd5b505050506040513d60208110156106d857600080fd5b810190808051906020019092919050505050600560009054906101000a900473ffffffffffffffffffffffffffffffffffffffff1673ffffffffffffffffffffffffffffffffffffffff166341441d3b826040518263ffffffff1660e01b815260040180828152602001915050600060405180830381600087803b15801561075f57600080fd5b505af1158015610773573d6000803e3d6000fd5b50505050610780816117dd565b600660003373ffffffffffffffffffffffffffffffffffffffff1673ffffffffffffffffffffffffffffffffffffffff168152602001908152602001600020600082015181600001556020820151816001015560408201518160020160006101000a81548160ff021916908360ff160217905550606082015181600301556080820151816004015560a0820151816005015560c08201518160060160006101000a81548160ff0219169083151502179055509050508060026000828254019250508190555050565b3373ffffffffffffffffffffffffffffffffffffffff166000809054906101000a900473ffffffffffffffffffffffffffffffffffffffff1673ffffffffffffffffffffffffffffffffffffffff1614610911576000610910576040517f08c379a000000000000000000000000000000000000000000000000000000000815260040180806020018281038252600e8152602001807f4f6e6c7920666f722061646d696e00000000000000000000000000000000000081525060200191505060405180910390fd5b5b806000806101000a81548173ffffffffffffffffffffffffffffffffffffffff021916908373ffffffffffffffffffffffffffffffffffffffff16021790555050565b3373ffffffffffffffffffffffffffffffffffffffff166000809054906101000a900473ffffffffffffffffffffffffffffffffffffffff1673ffffffffffffffffffffffffffffffffffffffff1614610a1d576000610a1c576040517f08c379a000000000000000000000000000000000000000000000000000000000815260040180806020018281038252600e8152602001807f4f6e6c7920666f722061646d696e00000000000000000000000000000000000081525060200191505060405180910390fd5b5b60018060146101000a81548160ff021916908315150217905550565b3373ffffffffffffffffffffffffffffffffffffffff166000809054906101000a900473ffffffffffffffffffffffffffffffffffffffff1673ffffffffffffffffffffffffffffffffffffffff1614610b02576000610b01576040517f08c379a000000000000000000000000000000000000000000000000000000000815260040180806020018281038252600e8152602001807f4f6e6c7920666f722061646d696e00000000000000000000000000000000000081525060200191505060405180910390fd5b5b80600160006101000a81548173ffffffffffffffffffffffffffffffffffffffff021916908373ffffffffffffffffffffffffffffffffffffffff16021790555050565b6001600660003373ffffffffffffffffffffffffffffffffffffffff1673ffffffffffffffffffffffffffffffffffffffff16815260200190815260200160002060020160009054906101000a900460ff1660ff1614610c15576000610c14576040517f08c379a00000000000000000000000000000000000000000000000000000000081526004018080602001828103825260128152602001807f4f6e6c7920666f7220696e766573746f7273000000000000000000000000000081525060200191505060405180910390fd5b5b42600660003373ffffffffffffffffffffffffffffffffffffffff1673ffffffffffffffffffffffffffffffffffffffff1681526020019081526020016000206001015410610ccc576040517f08c379a000000000000000000000000000000000000000000000000000000000815260040180806020018281038252600a8152602001807f746f6f206561726c79210000000000000000000000000000000000000000000081525060200191505060405180910390fd5b34600660003373ffffffffffffffffffffffffffffffffffffffff1673ffffffffffffffffffffffffffffffffffffffff1681526020019081526020016000206000015411610d83576040517f08c379a000000000000000000000000000000000000000000000000000000000815260040180806020018281038252600f8152602001807f746f6f2062696720616d6f756e7421000000000000000000000000000000000081525060200191505060405180910390fd5b34600660003373ffffffffffffffffffffffffffffffffffffffff1673ffffffffffffffffffffffffffffffffffffffff1681526020019081526020016000206000015410610e3a576040517f08c379a00000000000000000000000000000000000000000000000000000000081526004018080602001828103825260118152602001807f746f6f20736d616c6c20616d6f756e742100000000000000000000000000000081525060200191505060405180910390fd5b610e433461182b565b565b3373ffffffffffffffffffffffffffffffffffffffff166000809054906101000a900473ffffffffffffffffffffffffffffffffffffffff1673ffffffffffffffffffffffffffffffffffffffff1614610f0e576000610f0d576040517f08c379a000000000000000000000000000000000000000000000000000000000815260040180806020018281038252600e8152602001807f4f6e6c7920666f722061646d696e00000000000000000000000000000000000081525060200191505060405180910390fd5b5b6000600354600254019050600560009054906101000a900473ffffffffffffffffffffffffffffffffffffffff1673ffffffffffffffffffffffffffffffffffffffff16631058d281826040518263ffffffff1660e01b815260040180828152602001915050600060405180830381600087803b158015610f8e57600080fd5b505af1158015610fa2573d6000803e3d6000fd5b5050505050565b6001600660003373ffffffffffffffffffffffffffffffffffffffff1673ffffffffffffffffffffffffffffffffffffffff16815260200190815260200160002060020160009054906101000a900460ff1660ff161415611079576000611078576040517f08c379a00000000000000000000000000000000000000000000000000000000081526004018080602001828103825260168152602001807f4f6e6c7920666f72206e6f7420696e766573746f72730000000000000000000081525060200191505060405180910390fd5b5b611082346104ca565b565b600160149054906101000a900460ff1681565b3373ffffffffffffffffffffffffffffffffffffffff166000809054906101000a900473ffffffffffffffffffffffffffffffffffffffff1673ffffffffffffffffffffffffffffffffffffffff161461116057600061115f576040517f08c379a000000000000000000000000000000000000000000000000000000000815260040180806020018281038252600e8152602001807f4f6e6c7920666f722061646d696e00000000000000000000000000000000000081525060200191505060405180910390fd5b5b600560009054906101000a900473ffffffffffffffffffffffffffffffffffffffff1673ffffffffffffffffffffffffffffffffffffffff16631058d28160006040518263ffffffff1660e01b815260040180828152602001915050600060405180830381600087803b1580156111d657600080fd5b505af11580156111ea573d6000803e3d6000fd5b505050506111f6611d4c565b565b60025481565b3373ffffffffffffffffffffffffffffffffffffffff166000809054906101000a900473ffffffffffffffffffffffffffffffffffffffff1673ffffffffffffffffffffffffffffffffffffffff16146112c75760006112c6576040517f08c379a000000000000000000000000000000000000000000000000000000000815260040180806020018281038252600e8152602001807f4f6e6c7920666f722061646d696e00000000000000000000000000000000000081525060200191505060405180910390fd5b5b600560009054906101000a900473ffffffffffffffffffffffffffffffffffffffff1673ffffffffffffffffffffffffffffffffffffffff16631058d2816003546040518263ffffffff1660e01b815260040180828152602001915050600060405180830381600087803b15801561133e57600080fd5b505af1158015611352573d6000803e3d6000fd5b50505050565b60066020528060005260406000206000915090508060000154908060010154908060020160009054906101000a900460ff16908060030154908060040154908060050154908060060160009054906101000a900460ff16905087565b600560009054906101000a900473ffffffffffffffffffffffffffffffffffffffff1681565b60035481565b60006001600660003373ffffffffffffffffffffffffffffffffffffffff1673ffffffffffffffffffffffffffffffffffffffff16815260200190815260200160002060020160009054906101000a900460ff1660ff16146114b15760006114b0576040517f08c379a00000000000000000000000000000000000000000000000000000000081526004018080602001828103825260128152602001807f4f6e6c7920666f7220696e766573746f7273000000000000000000000000000081525060200191505060405180910390fd5b5b600660003373ffffffffffffffffffffffffffffffffffffffff1673ffffffffffffffffffffffffffffffffffffffff16815260200190815260200160002060000154905090565b3373ffffffffffffffffffffffffffffffffffffffff166000809054906101000a900473ffffffffffffffffffffffffffffffffffffffff1673ffffffffffffffffffffffffffffffffffffffff16146115c25760006115c1576040517f08c379a000000000000000000000000000000000000000000000000000000000815260040180806020018281038252600e8152602001807f4f6e6c7920666f722061646d696e00000000000000000000000000000000000081525060200191505060405180910390fd5b5b6000600160146101000a81548160ff021916908315150217905550565b600460009054906101000a900473ffffffffffffffffffffffffffffffffffffffff1681565b60003373ffffffffffffffffffffffffffffffffffffffff166000809054906101000a900473ffffffffffffffffffffffffffffffffffffffff1673ffffffffffffffffffffffffffffffffffffffff16146116d05760006116cf576040517f08c379a000000000000000000000000000000000000000000000000000000000815260040180806020018281038252600e8152602001807f4f6e6c7920666f722061646d696e00000000000000000000000000000000000081525060200191505060405180910390fd5b5b600560009054906101000a900473ffffffffffffffffffffffffffffffffffffffff1673ffffffffffffffffffffffffffffffffffffffff16631175a1dd6000306040518363ffffffff1660e01b8152600401808381526020018273ffffffffffffffffffffffffffffffffffffffff1673ffffffffffffffffffffffffffffffffffffffff1681526020019250505060206040518083038186803b15801561177857600080fd5b505afa15801561178c573d6000803e3d6000fd5b505050506040513d60208110156117a257600080fd5b8101908080519060200190929190505050905090565b6000809054906101000a900473ffffffffffffffffffffffffffffffffffffffff1681565b6117e5611ed4565b6040518060e0016040528083815260200162093a808152602001600160ff1681526020014381526020016000815260200160008152602001600015158152509050919050565b43600660003373ffffffffffffffffffffffffffffffffffffffff1673ffffffffffffffffffffffffffffffffffffffff16815260200190815260200160002060040181905550600560009054906101000a900473ffffffffffffffffffffffffffffffffffffffff1673ffffffffffffffffffffffffffffffffffffffff16631058d281826040518263ffffffff1660e01b815260040180828152602001915050600060405180830381600087803b1580156118e757600080fd5b505af11580156118fb573d6000803e3d6000fd5b505050506000600560009054906101000a900473ffffffffffffffffffffffffffffffffffffffff1673ffffffffffffffffffffffffffffffffffffffff16638dbb1e3a600660003373ffffffffffffffffffffffffffffffffffffffff1673ffffffffffffffffffffffffffffffffffffffff16815260200190815260200160002060030154600660003373ffffffffffffffffffffffffffffffffffffffff1673ffffffffffffffffffffffffffffffffffffffff168152602001908152602001600020600401546040518363ffffffff1660e01b8152600401808381526020018281526020019250505060206040518083038186803b158015611a0057600080fd5b505afa158015611a14573d6000803e3d6000fd5b505050506040513d6020811015611a2a57600080fd5b8101908080519060200190929190505050905080600660003373ffffffffffffffffffffffffffffffffffffffff1673ffffffffffffffffffffffffffffffffffffffff168152602001908152602001600020600501541115611b0457611a8f610954565b6000611b03576040517f08c379a00000000000000000000000000000000000000000000000000000000081526004018080602001828103825260138152602001807f436f6e74726163742069732073746f707065640000000000000000000000000081525060200191505060405180910390fd5b5b6000600660003373ffffffffffffffffffffffffffffffffffffffff1673ffffffffffffffffffffffffffffffffffffffff16815260200190815260200160002060060160009054906101000a900460ff16611b605781611ba6565b600660003373ffffffffffffffffffffffffffffffffffffffff1673ffffffffffffffffffffffffffffffffffffffff1681526020019081526020016000206005015482035b905080600360008282540192505081905550600660003373ffffffffffffffffffffffffffffffffffffffff1673ffffffffffffffffffffffffffffffffffffffff16815260200190815260200160002060008082016000905560018201600090556002820160006101000a81549060ff02191690556003820160009055600482016000905560058201600090556006820160006101000a81549060ff0219169055505082600260008282540192505081905550600460009054906101000a900473ffffffffffffffffffffffffffffffffffffffff1673ffffffffffffffffffffffffffffffffffffffff1663a9059cbb33856040518363ffffffff1660e01b8152600401808373ffffffffffffffffffffffffffffffffffffffff1673ffffffffffffffffffffffffffffffffffffffff16815260200182815260200192505050602060405180830381600087803b158015611d0357600080fd5b505af1158015611d17573d6000803e3d6000fd5b505050506040513d6020811015611d2d57600080fd5b810190808051906020019092919050505050611d47611d4c565b505050565b6000600460009054906101000a900473ffffffffffffffffffffffffffffffffffffffff1673ffffffffffffffffffffffffffffffffffffffff166370a08231306040518263ffffffff1660e01b8152600401808273ffffffffffffffffffffffffffffffffffffffff1673ffffffffffffffffffffffffffffffffffffffff16815260200191505060206040518083038186803b158015611ded57600080fd5b505afa158015611e01573d6000803e3d6000fd5b505050506040513d6020811015611e1757600080fd5b810190808051906020019092919050505090506000811115611ed15780600360008282540192505081905550600560009054906101000a900473ffffffffffffffffffffffffffffffffffffffff1673ffffffffffffffffffffffffffffffffffffffff166341441d3b826040518263ffffffff1660e01b815260040180828152602001915050600060405180830381600087803b158015611eb857600080fd5b505af1158015611ecc573d6000803e3d6000fd5b505050505b50565b6040518060e001604052806000815260200160008152602001600060ff168152602001600081526020016000815260200160008152602001600015158152509056fea264697066735822122005e66e0395cb2683be754c652db0b69f36562fc28ff6363736b70c2c06231b4e64736f6c63430006060033",
  "immutableReferences": {},
  "source": "pragma solidity ^0.6.6;\n\n//Use this for visual sutdio code IDE\nimport \"@openzeppelin/contracts/token/ERC20/IERC20.sol\";\nimport \"@openzeppelin/contracts/math/SafeMath.sol\";\nimport \"@openzeppelin/contracts/math/Math.sol\";\nimport \"@openzeppelin/contracts/math/Math.sol\";\nimport \"@openzeppelin/contracts/token/ERC20/SafeERC20.sol\";\n\n//Use this for remix IDE\n// import \"https://github.com/OpenZeppelin/openzeppelin-contracts/blob/v3.0.1/contracts/token/ERC20/IERC20.sol\";\n// import \"https://github.com/OpenZeppelin/openzeppelin-contracts/blob/v3.0.1/contracts/math/SafeMath.sol\";\n// import \"https://github.com/OpenZeppelin/openzeppelin-contracts/blob/v3.0.1/contracts/math/Math.sol\";\n// import \"https://github.com/OpenZeppelin/openzeppelin-contracts/blob/v3.0.1/contracts/math/Math.sol\";\n// import \"https://github.com/OpenZeppelin/openzeppelin-contracts/blob/v3.0.1/contracts/token/ERC20/SafeERC20.sol\";\n\nimport \"./interfaces/ICakeChef.sol\";\n\ncontract Stacking {\n    using SafeERC20 for IERC20;\n    using Address for address;\n    using SafeMath for uint256;\n    using Math for uint256;\n\n    address public admin;\n    address private houseAddress;\n    bool public isStopped;\n    // uint256 public investorsCount;\n    uint256 public totalInvested;\n    uint256 public bankValue;\n\n    IERC20 public cake = IERC20(0x0E09FaBB73Bd3Ade0a17ECC321fD13a19e81cE82);\n    CakeChef public cakeChef =\n        CakeChef(0x73feaa1eE314F8c655E354234017bE2193C9E24E);\n\n    // Info of each user.\n    //TODO manage array of Stacks and array of Bet\n    struct Investor {\n        uint256 amount; // How many LP tokens the user has provided.\n        uint256 minTimeToWithdraw; // 604800 = 1 week\n        uint8 flag;\n        uint256 startBlockNumber;\n        uint256 stopBlockNumber;\n        uint256 rewards;\n        bool isWin;\n        //TODO add multiplier\n    }\n\n    // mapping(uint256 => mapping(address => UserInfo)) public userInfo;\n    mapping(address => Investor) public investors;\n\n    constructor() public {\n        admin = msg.sender;\n        houseAddress = msg.sender;\n        isStopped = false;\n        totalInvested = 0;\n        bankValue = 0;\n    }\n\n    // ----------------------------------------------------------------------------\n    // MODIFIERS\n    // ----------------------------------------------------------------------------\n\n    modifier onlyIfNotStopped {\n        if (isStopped) require(false, \"Contract is stopped\");\n        _;\n    }\n\n    modifier onlyIfStopped {\n        if (!isStopped) require(false, \"Contract is not stopped\");\n        _;\n    }\n\n    modifier onlyInvestors {\n        // if (investors[msg.sender] == msg.sender)\n        if (investors[msg.sender].flag != 1)\n            require(false, \"Only for investors\");\n        _;\n    }\n\n    modifier onlyNotInvestors {\n        if (investors[msg.sender].flag == 1)\n            require(false, \"Only for not investors\");\n        _;\n    }\n\n    modifier onlyAdmin {\n        if (admin != msg.sender) require(false, \"Only for admin\");\n        _;\n    }\n\n    modifier onlyTimelockDone {\n        require(\n            (investors[msg.sender].minTimeToWithdraw) < block.timestamp,\n            \"too early!\"\n        );\n        _;\n    }\n\n    modifier onlyTotalAmount {\n        require((investors[msg.sender].amount) > msg.value, \"too big amount!\");\n        require(\n            (investors[msg.sender].amount) < msg.value,\n            \"too small amount!\"\n        );\n        _;\n    }\n\n    // ----------------------------------------------------------------------------\n    // CONTRACT MANAGEMENT\n    // ----------------------------------------------------------------------------\n\n    function stopContract() public onlyAdmin {\n        isStopped = true;\n    }\n\n    function resumeContract() public onlyAdmin {\n        isStopped = false;\n    }\n\n    function changeHouseAddress(address newHouse) public onlyAdmin {\n        houseAddress = newHouse;\n    }\n\n    function changeAdminAddress(address newAdmin) public onlyAdmin {\n        admin = newAdmin;\n    }\n\n    function pending() external view onlyAdmin returns (uint256) {\n        return cakeChef.pendingCake(0, address(this));\n    }\n\n    function harvest() external onlyAdmin {\n        cakeChef.leaveStaking(0);\n        _harvest();\n    }\n\n    function unstakeBank() external onlyAdmin {\n        cakeChef.leaveStaking(bankValue);\n    }\n\n    function unstakeAll() external onlyAdmin {\n        uint256 total = totalInvested + bankValue;\n        cakeChef.leaveStaking(total);\n    }\n\n    // ----------------------------------------------------------------------------\n    // EXTERNALS FUNCTIONS\n    // ----------------------------------------------------------------------------\n    function stake() external payable onlyNotInvestors {\n        _stake(msg.value);\n    }\n\n    function unstake()\n        external\n        payable\n        onlyInvestors\n        onlyTimelockDone\n        onlyTotalAmount\n    {\n        _unstake(msg.value);\n    }\n\n    function balance() external view onlyInvestors returns (uint256) {\n        return investors[msg.sender].amount;\n    }\n\n    //TODO add spend function for benefices for admin\n    // function spend(uint256 amount, address recipient) external onlyAdmin{\n    //     require(msg.sender == admin, \"only admin\");\n    //     uint256 balanceShares = cakeChef.balanceOf(address(this));\n    //     cakeChef.leaveStaking(balanceShares);\n    //     cake.transfer(recipient, amount);\n    //     uint256 balanceDai = cake.balanceOf(address(this));\n    //     if (balanceDai > 0) {\n    //         _save(balanceDai);\n    //     }\n    // }\n\n    // ----------------------------------------------------------------------------\n    // INTERNAL FUNCTIONS\n    // ----------------------------------------------------------------------------\n    function _addInvestor(uint256 amount)\n        internal\n        view\n        returns (Investor memory)\n    {\n        // inverstorsCount++;\n        //TODO update rewards with betted value\n        return Investor(amount, 604800, 1, block.number, 0, 0, false); //604800 = 1 week\n    }\n\n    function _stake(uint256 amount) internal {\n        cake.transferFrom(msg.sender, address(this), amount);\n        cake.approve(address(cakeChef), amount);\n        cakeChef.enterStaking(amount);\n\n        investors[msg.sender] = _addInvestor(amount);\n\n        totalInvested += amount;\n        //TODO emit event\n    }\n\n    function _unstake(uint256 amount) internal {\n        investors[msg.sender].stopBlockNumber = block.number;\n\n        //auto harverst\n        cakeChef.leaveStaking(amount);\n\n        //updating bank value with rewards\n        uint256 rewards = cakeChef.getMultiplier(\n            investors[msg.sender].startBlockNumber,\n            investors[msg.sender].stopBlockNumber\n        );\n\n        //TODO check if bank rewards are negative and pause it if it's true;\n        if (investors[msg.sender].rewards > rewards) {\n            stopContract();\n            require(false, \"Contract is stopped\");\n        }\n\n        uint256 bankRewards = investors[msg.sender].isWin\n            ? rewards - investors[msg.sender].rewards\n            : rewards;\n\n        bankValue += bankRewards;\n\n        //remove amount from investors for investor\n\n        // TODO allow to remove less than investor amount ??\n        // uint256 newAmount = investors[msg.sender].amount;\n        // investors[msg.sender].amount = newAmount.sub(amount);\n\n        //TODO keep investor in investrors ??\n        // investors[msg.sender].amount = 0;\n        // investors[msg.sender].flag = 0;\n\n        delete investors[msg.sender];\n        totalInvested += amount;\n\n        //transfert amount to user\n        cake.transfer(msg.sender, amount);\n\n        _harvest();\n\n        //TODO emit event\n    }\n\n    function _harvest() internal {\n        //if cakes in contract balance (fees & stacking rewards), stack it\n        uint256 balanceCake = cake.balanceOf(address(this));\n        if (balanceCake > 0) {\n            bankValue += balanceCake;\n            cakeChef.enterStaking(balanceCake);\n        }\n    }\n\n    // *********  START StrategyACryptoSCakeV2b  *********\n    // function _stakeCake() internal {\n    //     uint256 _want = IERC20(cake).balanceOf(address(this));\n    //     IERC20(cake).safeApprove(cakeChef, 0);\n    //     IERC20(cake).safeApprove(cakeChef, _want);\n    //     CakeChef(cakeChef).enterStaking(_want);\n    // }\n    // function _payFees(uint256 _want) internal {\n    //     uint256 _fee = _want.mul(performanceFee).div(FEE_DENOMINATOR);\n    //     uint256 _reward = _want.mul(strategistReward).div(FEE_DENOMINATOR);\n    //     IERC20(want).safeTransfer(IController(controller).rewards(), _fee);\n    //     IERC20(want).safeTransfer(strategist, _reward);\n    // }\n    // *********  END StrategyACryptoSCakeV2b  *********\n\n    // ----------------------------------------------------------------------------\n    // DEFAULT FUNCTIONS\n    // ----------------------------------------------------------------------------\n\n    /**\n     * @dev fallback function ***DO NOT OVERRIDE***\n     */\n    // fallback() external payable  when no other function matches (not even the receive function). Optionally payable.\n    fallback() external payable {\n        _stake(msg.value);\n    }\n\n    /**\n     * @dev receive function ***DO NOT OVERRIDE***\n     */\n    // receive() external payable  for empty calldata (and any value)\n    receive() external payable {\n        _stake(msg.value);\n    }\n}\n",
  "sourcePath": "/Users/dieug_/Code/BlockChains/solidity-training-project/contracts/Stacking.sol",
  "compiler": {
    "name": "solc",
    "version": "0.6.6+commit.6c089d02.Emscripten.clang"
  },
  "schemaVersion": "3.4.1",
  "updatedAt": "2021-06-27T10:25:27.442Z",
  "devdoc": {
    "methods": {}
  },
  "userdoc": {
    "methods": {}
  }
}