{
  "contractName": "Staking",
  "abi": [
    {
      "inputs": [
        {
          "internalType": "address",
          "name": "_State",
          "type": "address"
        },
        {
          "internalType": "address",
          "name": "_stakingAdmin",
          "type": "address"
        }
      ],
      "stateMutability": "nonpayable",
      "type": "constructor"
    },
    {
      "anonymous": false,
      "inputs": [
        {
          "indexed": false,
          "internalType": "address",
          "name": "stateAddress",
          "type": "address"
        }
      ],
      "name": "LinkState",
      "type": "event"
    },
    {
      "anonymous": false,
      "inputs": [
        {
          "indexed": true,
          "internalType": "address",
          "name": "previousOwner",
          "type": "address"
        },
        {
          "indexed": true,
          "internalType": "address",
          "name": "newOwner",
          "type": "address"
        }
      ],
      "name": "OwnershipTransferred",
      "type": "event"
    },
    {
      "anonymous": false,
      "inputs": [
        {
          "indexed": true,
          "internalType": "uint256",
          "name": "lastReward",
          "type": "uint256"
        },
        {
          "indexed": false,
          "internalType": "uint256",
          "name": "poolShareValue",
          "type": "uint256"
        }
      ],
      "name": "PoolShareValueUpdated",
      "type": "event"
    },
    {
      "anonymous": false,
      "inputs": [
        {
          "indexed": false,
          "internalType": "uint256",
          "name": "newInterestRate",
          "type": "uint256"
        }
      ],
      "name": "SetInterestRate",
      "type": "event"
    },
    {
      "anonymous": false,
      "inputs": [
        {
          "indexed": false,
          "internalType": "uint256",
          "name": "newLockupPeriod",
          "type": "uint256"
        }
      ],
      "name": "SetLockupPeriod",
      "type": "event"
    },
    {
      "anonymous": false,
      "inputs": [
        {
          "indexed": false,
          "internalType": "uint256",
          "name": "newMinimumStake",
          "type": "uint256"
        }
      ],
      "name": "SetMinimumStake",
      "type": "event"
    },
    {
      "anonymous": false,
      "inputs": [
        {
          "indexed": false,
          "internalType": "address",
          "name": "stakingAdmin",
          "type": "address"
        }
      ],
      "name": "SetStakingAdmin",
      "type": "event"
    },
    {
      "anonymous": false,
      "inputs": [
        {
          "indexed": true,
          "internalType": "address",
          "name": "userAddress",
          "type": "address"
        },
        {
          "indexed": true,
          "internalType": "uint256",
          "name": "amount",
          "type": "uint256"
        },
        {
          "indexed": false,
          "internalType": "uint256",
          "name": "poolShares",
          "type": "uint256"
        },
        {
          "indexed": false,
          "internalType": "uint256",
          "name": "lockedUntil",
          "type": "uint256"
        }
      ],
      "name": "Staked",
      "type": "event"
    },
    {
      "anonymous": false,
      "inputs": [
        {
          "indexed": true,
          "internalType": "uint256",
          "name": "lastReward",
          "type": "uint256"
        },
        {
          "indexed": false,
          "internalType": "uint256",
          "name": "delta",
          "type": "uint256"
        }
      ],
      "name": "StakingRewardsMinted",
      "type": "event"
    },
    {
      "anonymous": false,
      "inputs": [
        {
          "indexed": true,
          "internalType": "address",
          "name": "userAddress",
          "type": "address"
        },
        {
          "indexed": true,
          "internalType": "uint256",
          "name": "amount",
          "type": "uint256"
        },
        {
          "indexed": false,
          "internalType": "uint256",
          "name": "poolShares",
          "type": "uint256"
        }
      ],
      "name": "Unstaked",
      "type": "event"
    },
    {
      "stateMutability": "payable",
      "type": "fallback"
    },
    {
      "inputs": [],
      "name": "interestRate",
      "outputs": [
        {
          "internalType": "uint256",
          "name": "",
          "type": "uint256"
        }
      ],
      "stateMutability": "view",
      "type": "function"
    },
    {
      "inputs": [],
      "name": "lastReward",
      "outputs": [
        {
          "internalType": "uint256",
          "name": "",
          "type": "uint256"
        }
      ],
      "stateMutability": "view",
      "type": "function"
    },
    {
      "inputs": [],
      "name": "lockupPeriod",
      "outputs": [
        {
          "internalType": "uint256",
          "name": "",
          "type": "uint256"
        }
      ],
      "stateMutability": "view",
      "type": "function"
    },
    {
      "inputs": [],
      "name": "marketIdStakingMPH",
      "outputs": [
        {
          "internalType": "bytes32",
          "name": "",
          "type": "bytes32"
        }
      ],
      "stateMutability": "view",
      "type": "function"
    },
    {
      "inputs": [],
      "name": "minimumStake",
      "outputs": [
        {
          "internalType": "uint256",
          "name": "",
          "type": "uint256"
        }
      ],
      "stateMutability": "view",
      "type": "function"
    },
    {
      "inputs": [],
      "name": "owner",
      "outputs": [
        {
          "internalType": "address",
          "name": "",
          "type": "address"
        }
      ],
      "stateMutability": "view",
      "type": "function"
    },
    {
      "inputs": [],
      "name": "poolShareValue",
      "outputs": [
        {
          "internalType": "uint256",
          "name": "",
          "type": "uint256"
        }
      ],
      "stateMutability": "view",
      "type": "function"
    },
    {
      "inputs": [],
      "name": "renounceOwnership",
      "outputs": [],
      "stateMutability": "nonpayable",
      "type": "function"
    },
    {
      "inputs": [],
      "name": "stakingAddress",
      "outputs": [
        {
          "internalType": "address",
          "name": "",
          "type": "address"
        }
      ],
      "stateMutability": "view",
      "type": "function"
    },
    {
      "inputs": [],
      "name": "stakingAdmin",
      "outputs": [
        {
          "internalType": "address",
          "name": "",
          "type": "address"
        }
      ],
      "stateMutability": "view",
      "type": "function"
    },
    {
      "inputs": [],
      "name": "totalShares",
      "outputs": [
        {
          "internalType": "uint256",
          "name": "",
          "type": "uint256"
        }
      ],
      "stateMutability": "view",
      "type": "function"
    },
    {
      "inputs": [
        {
          "internalType": "address",
          "name": "newOwner",
          "type": "address"
        }
      ],
      "name": "transferOwnership",
      "outputs": [],
      "stateMutability": "nonpayable",
      "type": "function"
    },
    {
      "stateMutability": "payable",
      "type": "receive"
    },
    {
      "inputs": [],
      "name": "updatePoolShareValue",
      "outputs": [
        {
          "internalType": "uint256",
          "name": "_newPoolShareValue",
          "type": "uint256"
        }
      ],
      "stateMutability": "nonpayable",
      "type": "function"
    },
    {
      "inputs": [
        {
          "internalType": "uint256",
          "name": "_amount",
          "type": "uint256"
        }
      ],
      "name": "stake",
      "outputs": [
        {
          "internalType": "uint256",
          "name": "_poolShares",
          "type": "uint256"
        }
      ],
      "stateMutability": "nonpayable",
      "type": "function"
    },
    {
      "inputs": [
        {
          "internalType": "uint256",
          "name": "_numOfShares",
          "type": "uint256"
        }
      ],
      "name": "unstake",
      "outputs": [
        {
          "internalType": "uint256",
          "name": "_amount",
          "type": "uint256"
        }
      ],
      "stateMutability": "nonpayable",
      "type": "function"
    },
    {
      "inputs": [
        {
          "internalType": "address",
          "name": "_address",
          "type": "address"
        }
      ],
      "name": "setStakingAdmin",
      "outputs": [],
      "stateMutability": "nonpayable",
      "type": "function"
    },
    {
      "inputs": [
        {
          "internalType": "address",
          "name": "_stateAddress",
          "type": "address"
        }
      ],
      "name": "setStateAddress",
      "outputs": [],
      "stateMutability": "nonpayable",
      "type": "function"
    },
    {
      "inputs": [
        {
          "internalType": "uint256",
          "name": "_interestRate",
          "type": "uint256"
        }
      ],
      "name": "setInterestRate",
      "outputs": [],
      "stateMutability": "nonpayable",
      "type": "function"
    },
    {
      "inputs": [
        {
          "internalType": "uint256",
          "name": "_lockupPeriod",
          "type": "uint256"
        }
      ],
      "name": "setLockupPeriodRate",
      "outputs": [],
      "stateMutability": "nonpayable",
      "type": "function"
    },
    {
      "inputs": [
        {
          "internalType": "uint256",
          "name": "_minimumStake",
          "type": "uint256"
        }
      ],
      "name": "setMinimumStake",
      "outputs": [],
      "stateMutability": "nonpayable",
      "type": "function"
    },
    {
      "inputs": [],
      "name": "getTotalPooledValue",
      "outputs": [
        {
          "internalType": "uint256",
          "name": "_totalPooled",
          "type": "uint256"
        }
      ],
      "stateMutability": "view",
      "type": "function"
    },
    {
      "inputs": [
        {
          "internalType": "address",
          "name": "_address",
          "type": "address"
        }
      ],
      "name": "getStake",
      "outputs": [
        {
          "internalType": "uint256",
          "name": "_poolShares",
          "type": "uint256"
        }
      ],
      "stateMutability": "view",
      "type": "function"
    },
    {
      "inputs": [
        {
          "internalType": "address",
          "name": "_address",
          "type": "address"
        }
      ],
      "name": "getStakeValue",
      "outputs": [
        {
          "internalType": "uint256",
          "name": "_value",
          "type": "uint256"
        },
        {
          "internalType": "uint256",
          "name": "_lastUpdate",
          "type": "uint256"
        }
      ],
      "stateMutability": "view",
      "type": "function"
    }
  ],
  "bytecode": "0x60806040526305f5e100600255613a9860055562278d0060065569152d02c7e14af6800000600755732222222222222222222222222222222222222222600960006101000a81548173ffffffffffffffffffffffffffffffffffffffff021916908373ffffffffffffffffffffffffffffffffffffffff1602179055507f9a31fdde7a3b1444b1befb10735dcc3b72cbd9dd604d2ff45144352bf0f359a660001b600a55348015620000b057600080fd5b5060405162002c4838038062002c4883398181016040526040811015620000d657600080fd5b8101908080519060200190929190805190602001909291905050506000620001036200027d60201b60201c565b9050806000806101000a81548173ffffffffffffffffffffffffffffffffffffffff021916908373ffffffffffffffffffffffffffffffffffffffff1602179055508073ffffffffffffffffffffffffffffffffffffffff16600073ffffffffffffffffffffffffffffffffffffffff167f8be0079c531659141344cd1fd0a4f28419497f9722a3daafe3b4186f6b6457e060405160405180910390a350620001b2816200028560201b60201c565b620001c382620003ec60201b60201c565b7ffd48bfbbcb5a287c0ba5513ca319e022d18f0f07bc4d4dea3ace362f671089806006546040518082815260200191505060405180910390a17fcd49b0a32b631e59338de3903380e535f8738f7ff62fcb3953129b96076967396007546040518082815260200191505060405180910390a17f39c0943777dedee5edb19f576e488e77fd10974f1013bb29a9472e0dac736bf36005546040518082815260200191505060405180910390a14260038190555050506200057c565b600033905090565b620002956200027d60201b60201c565b73ffffffffffffffffffffffffffffffffffffffff16620002bb6200055360201b60201c565b73ffffffffffffffffffffffffffffffffffffffff161462000345576040517f08c379a00000000000000000000000000000000000000000000000000000000081526004018080602001828103825260208152602001807f4f776e61626c653a2063616c6c6572206973206e6f7420746865206f776e657281525060200191505060405180910390fd5b80600860006101000a81548173ffffffffffffffffffffffffffffffffffffffff021916908373ffffffffffffffffffffffffffffffffffffffff1602179055507f105518b3c988ba3d822d539675383b544a5143ee8f0fd22bf4bf8c338e103afd81604051808273ffffffffffffffffffffffffffffffffffffffff1673ffffffffffffffffffffffffffffffffffffffff16815260200191505060405180910390a150565b620003fc6200027d60201b60201c565b73ffffffffffffffffffffffffffffffffffffffff16620004226200055360201b60201c565b73ffffffffffffffffffffffffffffffffffffffff1614620004ac576040517f08c379a00000000000000000000000000000000000000000000000000000000081526004018080602001828103825260208152602001807f4f776e61626c653a2063616c6c6572206973206e6f7420746865206f776e657281525060200191505060405180910390fd5b80600160006101000a81548173ffffffffffffffffffffffffffffffffffffffff021916908373ffffffffffffffffffffffffffffffffffffffff1602179055507f978c711532bae8c58f353b0f3c7f3a0dfe600d9ae9a81818f2ad2919b88e199081604051808273ffffffffffffffffffffffffffffffffffffffff1673ffffffffffffffffffffffffffffffffffffffff16815260200191505060405180910390a150565b60008060009054906101000a900473ffffffffffffffffffffffffffffffffffffffff16905090565b6126bc806200058c6000396000f3fe6080604052600436106101445760003560e01c80638da5cb5b116100b6578063e71e7ec01161006f578063e71e7ec014610649578063ec5ffac214610674578063ee947a7c1461069f578063f2fde38b146106ca578063f48fedb01461071b578063fc2ab77b146107465761019a565b80638da5cb5b1461048a57806396802374146104e1578063a4c2661e1461054d578063a694fc3a14610578578063c9b17149146105c7578063d7b4be24146105f25761019a565b80633a98ef39116101085780633a98ef3914610342578063597f859c1461036d5780635f84f302146103a8578063715018a6146103e35780637a766460146103fa5780637c3a00fd1461045f5761019a565b80630645dcd7146101eb5780631c4c7fd814610216578063233e9903146102675780632e17de78146102a25780633181dfd7146102f15761019a565b3661019a576040517f08c379a00000000000000000000000000000000000000000000000000000000081526004018080602001828103825260258152602001806126626025913960400191505060405180910390fd5b6040517f08c379a00000000000000000000000000000000000000000000000000000000081526004018080602001828103825260258152602001806126626025913960400191505060405180910390fd5b3480156101f757600080fd5b5061020061079d565b6040518082815260200191505060405180910390f35b34801561022257600080fd5b506102656004803603602081101561023957600080fd5b81019080803573ffffffffffffffffffffffffffffffffffffffff1690602001909291905050506107bb565b005b34801561027357600080fd5b506102a06004803603602081101561028a57600080fd5b8101908080359060200190929190505050610911565b005b3480156102ae57600080fd5b506102db600480360360208110156102c557600080fd5b81019080803590602001909291905050506109f8565b6040518082815260200191505060405180910390f35b3480156102fd57600080fd5b506103406004803603602081101561031457600080fd5b81019080803573ffffffffffffffffffffffffffffffffffffffff169060200190929190505050610f6d565b005b34801561034e57600080fd5b506103576110c3565b6040518082815260200191505060405180910390f35b34801561037957600080fd5b506103a66004803603602081101561039057600080fd5b81019080803590602001909291905050506110c9565b005b3480156103b457600080fd5b506103e1600480360360208110156103cb57600080fd5b81019080803590602001909291905050506111b0565b005b3480156103ef57600080fd5b506103f8611297565b005b34801561040657600080fd5b506104496004803603602081101561041d57600080fd5b81019080803573ffffffffffffffffffffffffffffffffffffffff169060200190929190505050611405565b6040518082815260200191505060405180910390f35b34801561046b57600080fd5b5061047461152e565b6040518082815260200191505060405180910390f35b34801561049657600080fd5b5061049f611534565b604051808273ffffffffffffffffffffffffffffffffffffffff1673ffffffffffffffffffffffffffffffffffffffff16815260200191505060405180910390f35b3480156104ed57600080fd5b506105306004803603602081101561050457600080fd5b81019080803573ffffffffffffffffffffffffffffffffffffffff16906020019092919050505061155d565b604051808381526020018281526020019250505060405180910390f35b34801561055957600080fd5b506105626116a1565b6040518082815260200191505060405180910390f35b34801561058457600080fd5b506105b16004803603602081101561059b57600080fd5b81019080803590602001909291905050506116a7565b6040518082815260200191505060405180910390f35b3480156105d357600080fd5b506105dc611c79565b6040518082815260200191505060405180910390f35b3480156105fe57600080fd5b50610607611c7f565b604051808273ffffffffffffffffffffffffffffffffffffffff1673ffffffffffffffffffffffffffffffffffffffff16815260200191505060405180910390f35b34801561065557600080fd5b5061065e611ca5565b6040518082815260200191505060405180910390f35b34801561068057600080fd5b50610689611cab565b6040518082815260200191505060405180910390f35b3480156106ab57600080fd5b506106b4611cb1565b6040518082815260200191505060405180910390f35b3480156106d657600080fd5b50610719600480360360208110156106ed57600080fd5b81019080803573ffffffffffffffffffffffffffffffffffffffff169060200190929190505050611cb7565b005b34801561072757600080fd5b50610730611eaa565b6040518082815260200191505060405180910390f35b34801561075257600080fd5b5061075b611fa5565b604051808273ffffffffffffffffffffffffffffffffffffffff1673ffffffffffffffffffffffffffffffffffffffff16815260200191505060405180910390f35b60006107b6600454600254611fcb90919063ffffffff16565b905090565b6107c3612051565b73ffffffffffffffffffffffffffffffffffffffff166107e1611534565b73ffffffffffffffffffffffffffffffffffffffff161461086a576040517f08c379a00000000000000000000000000000000000000000000000000000000081526004018080602001828103825260208152602001807f4f776e61626c653a2063616c6c6572206973206e6f7420746865206f776e657281525060200191505060405180910390fd5b80600160006101000a81548173ffffffffffffffffffffffffffffffffffffffff021916908373ffffffffffffffffffffffffffffffffffffffff1602179055507f978c711532bae8c58f353b0f3c7f3a0dfe600d9ae9a81818f2ad2919b88e199081604051808273ffffffffffffffffffffffffffffffffffffffff1673ffffffffffffffffffffffffffffffffffffffff16815260200191505060405180910390a150565b600860009054906101000a900473ffffffffffffffffffffffffffffffffffffffff1673ffffffffffffffffffffffffffffffffffffffff163373ffffffffffffffffffffffffffffffffffffffff16146109b7576040517f08c379a00000000000000000000000000000000000000000000000000000000081526004018080602001828103825260358152602001806126066035913960400191505060405180910390fd5b806007819055507fcd49b0a32b631e59338de3903380e535f8738f7ff62fcb3953129b9607696739816040518082815260200191505060405180910390a150565b600080600160009054906101000a900473ffffffffffffffffffffffffffffffffffffffff1673ffffffffffffffffffffffffffffffffffffffff16630fa8f51633600a546040518363ffffffff1660e01b8152600401808373ffffffffffffffffffffffffffffffffffffffff1673ffffffffffffffffffffffffffffffffffffffff1681526020018281526020019250505060c06040518083038186803b158015610aa457600080fd5b505afa158015610ab8573d6000803e3d6000fd5b505050506040513d60c0811015610ace57600080fd5b810190808051906020019092919080519060200190929190805190602001909291908051906020019092919080519060200190929190805190602001909291905050505050505050905080831115610b71576040517f08c379a00000000000000000000000000000000000000000000000000000000081526004018080602001828103825260218152602001806125666021913960400191505060405180910390fd5b6000600160009054906101000a900473ffffffffffffffffffffffffffffffffffffffff1673ffffffffffffffffffffffffffffffffffffffff16633d7f4f3c33600a546040518363ffffffff1660e01b8152600401808373ffffffffffffffffffffffffffffffffffffffff1673ffffffffffffffffffffffffffffffffffffffff1681526020018281526020019250505060206040518083038186803b158015610c1c57600080fd5b505afa158015610c30573d6000803e3d6000fd5b505050506040513d6020811015610c4657600080fd5b8101908080519060200190929190505050905080421015610cb2576040517f08c379a00000000000000000000000000000000000000000000000000000000081526004018080602001828103825260308152602001806125d66030913960400191505060405180910390fd5b610cba611eaa565b50600160009054906101000a900473ffffffffffffffffffffffffffffffffffffffff1673ffffffffffffffffffffffffffffffffffffffff1663be7e64b633600a5484610d11898861205990919063ffffffff16565b60008060008060006040518a63ffffffff1660e01b8152600401808a73ffffffffffffffffffffffffffffffffffffffff1673ffffffffffffffffffffffffffffffffffffffff1681526020018981526020018881526020018781526020018681526020018581526020018481526020018381526020018281526020019950505050505050505050600060405180830381600087803b158015610db357600080fd5b505af1158015610dc7573d6000803e3d6000fd5b50505050610de08460045461205990919063ffffffff16565b600481905550610dfb60025485611fcb90919063ffffffff16565b9250600160009054906101000a900473ffffffffffffffffffffffffffffffffffffffff1673ffffffffffffffffffffffffffffffffffffffff1663beabacc8600960009054906101000a900473ffffffffffffffffffffffffffffffffffffffff1633866040518463ffffffff1660e01b8152600401808473ffffffffffffffffffffffffffffffffffffffff1673ffffffffffffffffffffffffffffffffffffffff1681526020018373ffffffffffffffffffffffffffffffffffffffff1673ffffffffffffffffffffffffffffffffffffffff1681526020018281526020019350505050600060405180830381600087803b158015610efc57600080fd5b505af1158015610f10573d6000803e3d6000fd5b50505050823373ffffffffffffffffffffffffffffffffffffffff167f7fc4727e062e336010f2c282598ef5f14facb3de68cf8195c2f23e1454b2b74e866040518082815260200191505060405180910390a38292505050919050565b610f75612051565b73ffffffffffffffffffffffffffffffffffffffff16610f93611534565b73ffffffffffffffffffffffffffffffffffffffff161461101c576040517f08c379a00000000000000000000000000000000000000000000000000000000081526004018080602001828103825260208152602001807f4f776e61626c653a2063616c6c6572206973206e6f7420746865206f776e657281525060200191505060405180910390fd5b80600860006101000a81548173ffffffffffffffffffffffffffffffffffffffff021916908373ffffffffffffffffffffffffffffffffffffffff1602179055507f105518b3c988ba3d822d539675383b544a5143ee8f0fd22bf4bf8c338e103afd81604051808273ffffffffffffffffffffffffffffffffffffffff1673ffffffffffffffffffffffffffffffffffffffff16815260200191505060405180910390a150565b60045481565b600860009054906101000a900473ffffffffffffffffffffffffffffffffffffffff1673ffffffffffffffffffffffffffffffffffffffff163373ffffffffffffffffffffffffffffffffffffffff161461116f576040517f08c379a00000000000000000000000000000000000000000000000000000000081526004018080602001828103825260358152602001806126066035913960400191505060405180910390fd5b806006819055507ffd48bfbbcb5a287c0ba5513ca319e022d18f0f07bc4d4dea3ace362f67108980816040518082815260200191505060405180910390a150565b600860009054906101000a900473ffffffffffffffffffffffffffffffffffffffff1673ffffffffffffffffffffffffffffffffffffffff163373ffffffffffffffffffffffffffffffffffffffff1614611256576040517f08c379a00000000000000000000000000000000000000000000000000000000081526004018080602001828103825260358152602001806126066035913960400191505060405180910390fd5b806005819055507f39c0943777dedee5edb19f576e488e77fd10974f1013bb29a9472e0dac736bf3816040518082815260200191505060405180910390a150565b61129f612051565b73ffffffffffffffffffffffffffffffffffffffff166112bd611534565b73ffffffffffffffffffffffffffffffffffffffff1614611346576040517f08c379a00000000000000000000000000000000000000000000000000000000081526004018080602001828103825260208152602001807f4f776e61626c653a2063616c6c6572206973206e6f7420746865206f776e657281525060200191505060405180910390fd5b600073ffffffffffffffffffffffffffffffffffffffff166000809054906101000a900473ffffffffffffffffffffffffffffffffffffffff1673ffffffffffffffffffffffffffffffffffffffff167f8be0079c531659141344cd1fd0a4f28419497f9722a3daafe3b4186f6b6457e060405160405180910390a360008060006101000a81548173ffffffffffffffffffffffffffffffffffffffff021916908373ffffffffffffffffffffffffffffffffffffffff160217905550565b600080600160009054906101000a900473ffffffffffffffffffffffffffffffffffffffff1673ffffffffffffffffffffffffffffffffffffffff16630fa8f51684600a546040518363ffffffff1660e01b8152600401808373ffffffffffffffffffffffffffffffffffffffff1673ffffffffffffffffffffffffffffffffffffffff1681526020018281526020019250505060c06040518083038186803b1580156114b157600080fd5b505afa1580156114c5573d6000803e3d6000fd5b505050506040513d60c08110156114db57600080fd5b810190808051906020019092919080519060200190929190805190602001909291908051906020019092919080519060200190929190805190602001909291905050505050505050905080915050919050565b60055481565b60008060009054906101000a900473ffffffffffffffffffffffffffffffffffffffff16905090565b6000806000600160009054906101000a900473ffffffffffffffffffffffffffffffffffffffff1673ffffffffffffffffffffffffffffffffffffffff16630fa8f51685600a546040518363ffffffff1660e01b8152600401808373ffffffffffffffffffffffffffffffffffffffff1673ffffffffffffffffffffffffffffffffffffffff1681526020018281526020019250505060c06040518083038186803b15801561160b57600080fd5b505afa15801561161f573d6000803e3d6000fd5b505050506040513d60c081101561163557600080fd5b810190808051906020019092919080519060200190929190805190602001909291908051906020019092919080519060200190929190805190602001909291905050505050505050905061169460025482611fcb90919063ffffffff16565b6003549250925050915091565b60025481565b600081600160009054906101000a900473ffffffffffffffffffffffffffffffffffffffff1673ffffffffffffffffffffffffffffffffffffffff166370a08231336040518263ffffffff1660e01b8152600401808273ffffffffffffffffffffffffffffffffffffffff1673ffffffffffffffffffffffffffffffffffffffff16815260200191505060206040518083038186803b15801561174957600080fd5b505afa15801561175d573d6000803e3d6000fd5b505050506040513d602081101561177357600080fd5b810190808051906020019092919050505010156117db576040517f08c379a000000000000000000000000000000000000000000000000000000000815260040180806020018281038252602781526020018061263b6027913960400191505060405180910390fd5b6117e3611eaa565b506117f9600254836120dc90919063ffffffff16565b90506000600160009054906101000a900473ffffffffffffffffffffffffffffffffffffffff1673ffffffffffffffffffffffffffffffffffffffff16630fa8f51633600a546040518363ffffffff1660e01b8152600401808373ffffffffffffffffffffffffffffffffffffffff1673ffffffffffffffffffffffffffffffffffffffff1681526020018281526020019250505060c06040518083038186803b1580156118a657600080fd5b505afa1580156118ba573d6000803e3d6000fd5b505050506040513d60c08110156118d057600080fd5b8101908080519060200190929190805190602001909291908051906020019092919080519060200190929190805190602001909291908051906020019092919050505050505050509050611941600254611933848461216590919063ffffffff16565b611fcb90919063ffffffff16565b600754111561199b576040517f08c379a000000000000000000000000000000000000000000000000000000000815260040180806020018281038252602e815260200180612587602e913960400191505060405180910390fd5b600160009054906101000a900473ffffffffffffffffffffffffffffffffffffffff1673ffffffffffffffffffffffffffffffffffffffff1663beabacc833600960009054906101000a900473ffffffffffffffffffffffffffffffffffffffff16611a1260025487611fcb90919063ffffffff16565b6040518463ffffffff1660e01b8152600401808473ffffffffffffffffffffffffffffffffffffffff1673ffffffffffffffffffffffffffffffffffffffff1681526020018373ffffffffffffffffffffffffffffffffffffffff1673ffffffffffffffffffffffffffffffffffffffff1681526020018281526020019350505050600060405180830381600087803b158015611aae57600080fd5b505af1158015611ac2573d6000803e3d6000fd5b50505050611adb8260045461216590919063ffffffff16565b600481905550600160009054906101000a900473ffffffffffffffffffffffffffffffffffffffff1673ffffffffffffffffffffffffffffffffffffffff1663be7e64b633600a54611b386006544261216590919063ffffffff16565b611b4b878761216590919063ffffffff16565b60008060008060006040518a63ffffffff1660e01b8152600401808a73ffffffffffffffffffffffffffffffffffffffff1673ffffffffffffffffffffffffffffffffffffffff1681526020018981526020018881526020018781526020018681526020018581526020018481526020018381526020018281526020019950505050505050505050600060405180830381600087803b158015611bed57600080fd5b505af1158015611c01573d6000803e3d6000fd5b50505050823373ffffffffffffffffffffffffffffffffffffffff167fb4caaf29adda3eefee3ad552a8e85058589bf834c7466cae4ee58787f70589ed84611c546006544261216590919063ffffffff16565b604051808381526020018281526020019250505060405180910390a381915050919050565b60035481565b600960009054906101000a900473ffffffffffffffffffffffffffffffffffffffff1681565b600a5481565b60075481565b60065481565b611cbf612051565b73ffffffffffffffffffffffffffffffffffffffff16611cdd611534565b73ffffffffffffffffffffffffffffffffffffffff1614611d66576040517f08c379a00000000000000000000000000000000000000000000000000000000081526004018080602001828103825260208152602001807f4f776e61626c653a2063616c6c6572206973206e6f7420746865206f776e657281525060200191505060405180910390fd5b600073ffffffffffffffffffffffffffffffffffffffff168173ffffffffffffffffffffffffffffffffffffffff161415611dec576040517f08c379a00000000000000000000000000000000000000000000000000000000081526004018080602001828103825260268152602001806125406026913960400191505060405180910390fd5b8073ffffffffffffffffffffffffffffffffffffffff166000809054906101000a900473ffffffffffffffffffffffffffffffffffffffff1673ffffffffffffffffffffffffffffffffffffffff167f8be0079c531659141344cd1fd0a4f28419497f9722a3daafe3b4186f6b6457e060405160405180910390a3806000806101000a81548173ffffffffffffffffffffffffffffffffffffffff021916908373ffffffffffffffffffffffffffffffffffffffff16021790555050565b6000611ec46201518060035461216590919063ffffffff16565b4210611f95576000611ef662015180611ee86003544261205990919063ffffffff16565b6120dc90919063ffffffff16565b9050611f21611f1060055483611fcb90919063ffffffff16565b60025461216590919063ffffffff16565b600281905550611f51611f406201518083611fcb90919063ffffffff16565b60035461216590919063ffffffff16565b6003819055506003547fd59b6c8b3190f59807a1cf0b6fb311ba03a32a91c1da71f75e24251a132cdc366002546040518082815260200191505060405180910390a2505b611f9d6121ed565b600254905090565b600860009054906101000a900473ffffffffffffffffffffffffffffffffffffffff1681565b600080831415611fde576000905061204b565b6000828402905082848281611fef57fe5b0414612046576040517f08c379a00000000000000000000000000000000000000000000000000000000081526004018080602001828103825260218152602001806125b56021913960400191505060405180910390fd5b809150505b92915050565b600033905090565b6000828211156120d1576040517f08c379a000000000000000000000000000000000000000000000000000000000815260040180806020018281038252601e8152602001807f536166654d6174683a207375627472616374696f6e206f766572666c6f77000081525060200191505060405180910390fd5b818303905092915050565b6000808211612153576040517f08c379a000000000000000000000000000000000000000000000000000000000815260040180806020018281038252601a8152602001807f536166654d6174683a206469766973696f6e206279207a65726f00000000000081525060200191505060405180910390fd5b81838161215c57fe5b04905092915050565b6000808284019050838110156121e3576040517f08c379a000000000000000000000000000000000000000000000000000000000815260040180806020018281038252601b8152602001807f536166654d6174683a206164646974696f6e206f766572666c6f77000000000081525060200191505060405180910390fd5b8091505092915050565b6000612206600454600254611fcb90919063ffffffff16565b905080600160009054906101000a900473ffffffffffffffffffffffffffffffffffffffff1673ffffffffffffffffffffffffffffffffffffffff166370a08231600960009054906101000a900473ffffffffffffffffffffffffffffffffffffffff166040518263ffffffff1660e01b8152600401808273ffffffffffffffffffffffffffffffffffffffff1673ffffffffffffffffffffffffffffffffffffffff16815260200191505060206040518083038186803b1580156122ca57600080fd5b505afa1580156122de573d6000803e3d6000fd5b505050506040513d60208110156122f457600080fd5b8101908080519060200190929190505050101561253c57600061241b600160009054906101000a900473ffffffffffffffffffffffffffffffffffffffff1673ffffffffffffffffffffffffffffffffffffffff166370a08231600960009054906101000a900473ffffffffffffffffffffffffffffffffffffffff166040518263ffffffff1660e01b8152600401808273ffffffffffffffffffffffffffffffffffffffff1673ffffffffffffffffffffffffffffffffffffffff16815260200191505060206040518083038186803b1580156123d157600080fd5b505afa1580156123e5573d6000803e3d6000fd5b505050506040513d60208110156123fb57600080fd5b81019080805190602001909291905050508361205990919063ffffffff16565b9050600160009054906101000a900473ffffffffffffffffffffffffffffffffffffffff1673ffffffffffffffffffffffffffffffffffffffff166340c10f19600960009054906101000a900473ffffffffffffffffffffffffffffffffffffffff16836040518363ffffffff1660e01b8152600401808373ffffffffffffffffffffffffffffffffffffffff1673ffffffffffffffffffffffffffffffffffffffff16815260200182815260200192505050600060405180830381600087803b1580156124e857600080fd5b505af11580156124fc573d6000803e3d6000fd5b505050506003547f49515cfbb90751627e2852161b77cf8be48f82d26e181d9fa1770df3168299a3826040518082815260200191505060405180910390a2505b5056fe4f776e61626c653a206e6577206f776e657220697320746865207a65726f20616464726573735374616b696e673a20696e73756666696369656e7420706f6f6c207368617265735374616b696e673a207374616b6520616d6f756e74206c6f776572207468616e206d696e696d756d207374616b65536166654d6174683a206d756c7469706c69636174696f6e206f766572666c6f775374616b696e673a2063616e6e6f7420756e7374616b65206265666f7265206c6f636b75702065787069726174696f6e5374616b696e673a2063616e206f6e6c792062652063616c6c6564206279205374616b696e672041646d696e6973747261746f722e5374616b696e673a20696e73756666696369656e74204d504820746f6b656e2062616c616e63655374616b696e673a20796f752063616e2774206465706f7369742045746865722068657265a26469706673582212209a593d54d9b3ee6825b5d74a2f8097b2055e2d2ac82a707f25957340d74b86d464736f6c63430006060033",
  "immutableReferences": {},
  "source": "pragma solidity 0.6.6;\n\nimport \"./interfaces/IState.sol\";\n\n// import \"./Ownable.sol\";\nimport \"@openzeppelin/contracts/access/Ownable.sol\";\n\n// import \"./libraries/SafeMath.sol\";\nimport \"@openzeppelin/contracts/math/SafeMath.sol\";\n\n// import \"https://github.com/OpenZeppelin/openzeppelin-contracts/blob/master/contracts/math/SafeMath.sol\";\n\n// ----------------------------------------------------------------------------------\n// Staking Token generates interest\n// The interest is set to 0.015% a day or ~5.475% in the first year\n// Stakers will be able to vote on all ProtocolDecisions in Governance (soon...)\n// There is a lockup after staking or topping up (30 days) and a minimum stake (100k MPH)\n// ----------------------------------------------------------------------------------\n\ncontract Staking is Ownable {\n    using SafeMath for uint256;\n    IState state;\n\n    uint256 constant PRECISION = 10**8;\n    uint256 constant INTERVAL = 1 days;\n\n    //mapping(address => uint256) private poolShares;\n    //mapping(address => uint256) private lockup;\n\n    uint256 public poolShareValue = PRECISION;\n    uint256 public lastReward;\n    uint256 public totalShares;\n    uint256 public interestRate = 15000; // 0.015% per day initially, diminishing returns over time\n    uint256 public lockupPeriod = 30 days; // to prevent tactical staking and ensure smooth governance\n    uint256 public minimumStake = 10**23; // 100k MPH minimum\n\n    address public stakingAdmin;\n\n    address public stakingAddress = 0x2222222222222222222222222222222222222222;\n    bytes32 public marketIdStakingMPH =\n        0x9a31fdde7a3b1444b1befb10735dcc3b72cbd9dd604d2ff45144352bf0f359a6; //STAKING_MPH\n\n    // ----------------------------------------------------------------------------\n    // Events\n    // ----------------------------------------------------------------------------\n    event SetInterestRate(uint256 newInterestRate);\n    event SetLockupPeriod(uint256 newLockupPeriod);\n    event SetMinimumStake(uint256 newMinimumStake);\n    event LinkState(address stateAddress);\n    event SetStakingAdmin(address stakingAdmin);\n\n    event PoolShareValueUpdated(\n        uint256 indexed lastReward,\n        uint256 poolShareValue\n    );\n    event StakingRewardsMinted(uint256 indexed lastReward, uint256 delta);\n    event Staked(\n        address indexed userAddress,\n        uint256 indexed amount,\n        uint256 poolShares,\n        uint256 lockedUntil\n    );\n    event Unstaked(\n        address indexed userAddress,\n        uint256 indexed amount,\n        uint256 poolShares\n    );\n\n    modifier onlyStakingAdmin {\n        require(\n            msg.sender == stakingAdmin,\n            \"Staking: can only be called by Staking Administrator.\"\n        );\n        _;\n    }\n\n    constructor(address _State, address _stakingAdmin) public {\n        setStakingAdmin(_stakingAdmin);\n        setStateAddress(_State);\n        emit SetLockupPeriod(lockupPeriod);\n        emit SetMinimumStake(minimumStake);\n        emit SetInterestRate(interestRate);\n        lastReward = now;\n        // missing: transferOwnership to Governance once deployed\n    }\n\n    // ----------------------------------------------------------------------------\n    // updatePoolShareValue\n    // Updates the value of the Pool Shares and returns the new value.\n    // Staking rewards are linear, there is no compound interest.\n    // ----------------------------------------------------------------------------\n\n    function updatePoolShareValue()\n        public\n        returns (uint256 _newPoolShareValue)\n    {\n        if (now >= lastReward.add(INTERVAL)) {\n            uint256 _numOfIntervals = now.sub(lastReward).div(INTERVAL);\n            poolShareValue = poolShareValue.add(\n                _numOfIntervals.mul(interestRate)\n            );\n            lastReward = lastReward.add(_numOfIntervals.mul(INTERVAL));\n            emit PoolShareValueUpdated(lastReward, poolShareValue);\n        }\n        mintStakingRewards();\n        return poolShareValue;\n    }\n\n    // ----------------------------------------------------------------------------\n    // Staking rewards are minted if necessary\n    // ----------------------------------------------------------------------------\n\n    function mintStakingRewards() private {\n        uint256 _targetBalance = poolShareValue.mul(totalShares);\n        if (state.balanceOf(stakingAddress) < _targetBalance) {\n            // If there are not enough token held by the contract, mint them\n            uint256 _delta = _targetBalance.sub(\n                state.balanceOf(stakingAddress)\n            );\n            state.mint(stakingAddress, _delta);\n            emit StakingRewardsMinted(lastReward, _delta);\n        }\n    }\n\n    // ----------------------------------------------------------------------------\n    // stake(uint256 _amount)\n    // User specifies an amount they intend to stake. Pool Shares are issued accordingly\n    // and the _amount is transferred to the staking contract\n    // ----------------------------------------------------------------------------\n\n    function stake(uint256 _amount) public returns (uint256 _poolShares) {\n        require(\n            state.balanceOf(msg.sender) >= _amount,\n            \"Staking: insufficient MPH token balance\"\n        );\n        updatePoolShareValue();\n        _poolShares = _amount.div(poolShareValue);\n        (uint256 _numOfShares, , , , , ) = state.getPosition(\n            msg.sender,\n            marketIdStakingMPH\n        );\n        require(\n            minimumStake <= _numOfShares.add(_poolShares).mul(poolShareValue),\n            \"Staking: stake amount lower than minimum stake\"\n        );\n        state.transfer(\n            msg.sender,\n            stakingAddress,\n            _poolShares.mul(poolShareValue)\n        );\n        totalShares = totalShares.add(_poolShares);\n        state.setPosition(\n            msg.sender,\n            marketIdStakingMPH,\n            now.add(lockupPeriod),\n            _numOfShares.add(_poolShares),\n            0,\n            0,\n            0,\n            0,\n            0\n        );\n        emit Staked(msg.sender, _amount, _poolShares, now.add(lockupPeriod));\n        return _poolShares;\n    }\n\n    // ----------------------------------------------------------------------------\n    // unstake(uint256 _amount)\n    // User specifies number of Pool Shares they want to unstake.\n    // Pool Shares get deleted and the user receives their MPH plus interest\n    // ----------------------------------------------------------------------------\n\n    function unstake(uint256 _numOfShares) public returns (uint256 _amount) {\n        (uint256 _numOfExistingShares, , , , , ) = state.getPosition(\n            msg.sender,\n            marketIdStakingMPH\n        );\n        require(\n            _numOfShares <= _numOfExistingShares,\n            \"Staking: insufficient pool shares\"\n        );\n\n        uint256 lockedInUntil = state.getLastUpdated(\n            msg.sender,\n            marketIdStakingMPH\n        );\n        require(\n            now >= lockedInUntil,\n            \"Staking: cannot unstake before lockup expiration\"\n        );\n        updatePoolShareValue();\n        state.setPosition(\n            msg.sender,\n            marketIdStakingMPH,\n            lockedInUntil,\n            _numOfExistingShares.sub(_numOfShares),\n            0,\n            0,\n            0,\n            0,\n            0\n        );\n        totalShares = totalShares.sub(_numOfShares);\n        _amount = _numOfShares.mul(poolShareValue);\n        state.transfer(stakingAddress, msg.sender, _amount);\n        emit Unstaked(msg.sender, _amount, _numOfShares);\n        return _amount;\n    }\n\n    // ----------------------------------------------------------------------------\n    // Administrative functions\n    // ----------------------------------------------------------------------------\n\n    function setStakingAdmin(address _address) public onlyOwner {\n        stakingAdmin = _address;\n        emit SetStakingAdmin(_address);\n    }\n\n    function setStateAddress(address _stateAddress) public onlyOwner {\n        state = IState(_stateAddress);\n        emit LinkState(_stateAddress);\n    }\n\n    function setInterestRate(uint256 _interestRate) public onlyStakingAdmin {\n        interestRate = _interestRate;\n        emit SetInterestRate(_interestRate);\n    }\n\n    function setLockupPeriodRate(uint256 _lockupPeriod)\n        public\n        onlyStakingAdmin\n    {\n        lockupPeriod = _lockupPeriod;\n        emit SetLockupPeriod(_lockupPeriod);\n    }\n\n    function setMinimumStake(uint256 _minimumStake) public onlyStakingAdmin {\n        minimumStake = _minimumStake;\n        emit SetMinimumStake(_minimumStake);\n    }\n\n    // ----------------------------------------------------------------------------\n    // Getter functions\n    // ----------------------------------------------------------------------------\n\n    function getTotalPooledValue() public view returns (uint256 _totalPooled) {\n        // Only accurate if poolShareValue is up to date\n        return poolShareValue.mul(totalShares);\n    }\n\n    function getStake(address _address)\n        public\n        view\n        returns (uint256 _poolShares)\n    {\n        (uint256 _numOfShares, , , , , ) = state.getPosition(\n            _address,\n            marketIdStakingMPH\n        );\n        return _numOfShares;\n    }\n\n    function getStakeValue(address _address)\n        public\n        view\n        returns (uint256 _value, uint256 _lastUpdate)\n    {\n        // Only accurate if poolShareValue is up to date\n\n        (uint256 _numOfShares, , , , , ) = state.getPosition(\n            _address,\n            marketIdStakingMPH\n        );\n\n        return (_numOfShares.mul(poolShareValue), lastReward);\n    }\n\n    // ------------------------------------------------------------------------\n    // Don't accept ETH\n    // ------------------------------------------------------------------------\n\n    // fallback() external payable  when no other function matches (not even the receive function). Optionally payable.\n    fallback() external payable {\n        revert(\"Staking: you can't deposit Ether here\");\n    }\n\n    // receive() external payable  for empty calldata (and any value)\n    receive() external payable {\n        revert(\"Staking: you can't deposit Ether here\");\n    }\n}\n",
  "sourcePath": "/Users/dieug_/Code/BlockChains/solidity-training-project/contracts/Stacking.sol",
  "compiler": {
    "name": "solc",
    "version": "0.6.6+commit.6c089d02.Emscripten.clang"
  },
  "schemaVersion": "3.4.1",
  "updatedAt": "2021-06-26T09:54:49.936Z",
  "devdoc": {
    "methods": {
      "owner()": {
        "details": "Returns the address of the current owner."
      },
      "renounceOwnership()": {
        "details": "Leaves the contract without owner. It will not be possible to call `onlyOwner` functions anymore. Can only be called by the current owner.     * NOTE: Renouncing ownership will leave the contract without an owner, thereby removing any functionality that is only available to the owner."
      },
      "transferOwnership(address)": {
        "details": "Transfers ownership of the contract to a new account (`newOwner`). Can only be called by the current owner."
      }
    }
  },
  "userdoc": {
    "methods": {}
  }
}